{
  "contractName": "ZoomToken",
  "abi": [
    {
      "inputs": [],
      "stateMutability": "nonpayable",
      "type": "constructor"
    },
    {
      "anonymous": false,
      "inputs": [
        {
          "indexed": true,
          "internalType": "address",
          "name": "owner",
          "type": "address"
        },
        {
          "indexed": true,
          "internalType": "address",
          "name": "spender",
          "type": "address"
        },
        {
          "indexed": false,
          "internalType": "uint256",
          "name": "value",
          "type": "uint256"
        }
      ],
      "name": "Approval",
      "type": "event"
    },
    {
      "anonymous": false,
      "inputs": [
        {
          "indexed": true,
          "internalType": "address",
          "name": "previousOwner",
          "type": "address"
        },
        {
          "indexed": true,
          "internalType": "address",
          "name": "newOwner",
          "type": "address"
        }
      ],
      "name": "OwnershipTransferred",
      "type": "event"
    },
    {
      "anonymous": false,
      "inputs": [
        {
          "indexed": false,
          "internalType": "address",
          "name": "account",
          "type": "address"
        }
      ],
      "name": "Paused",
      "type": "event"
    },
    {
      "anonymous": false,
      "inputs": [
        {
          "indexed": true,
          "internalType": "address",
          "name": "from",
          "type": "address"
        },
        {
          "indexed": true,
          "internalType": "address",
          "name": "to",
          "type": "address"
        },
        {
          "indexed": false,
          "internalType": "uint256",
          "name": "value",
          "type": "uint256"
        }
      ],
      "name": "Transfer",
      "type": "event"
    },
    {
      "anonymous": false,
      "inputs": [
        {
          "indexed": false,
          "internalType": "address",
          "name": "account",
          "type": "address"
        }
      ],
      "name": "Unpaused",
      "type": "event"
    },
    {
      "inputs": [],
      "name": "DOMAIN_SEPARATOR",
      "outputs": [
        {
          "internalType": "bytes32",
          "name": "",
          "type": "bytes32"
        }
      ],
      "stateMutability": "view",
      "type": "function",
      "constant": true
    },
    {
      "inputs": [],
      "name": "MAX_CONTRIBUTION",
      "outputs": [
        {
          "internalType": "uint256",
          "name": "",
          "type": "uint256"
        }
      ],
      "stateMutability": "view",
      "type": "function",
      "constant": true
    },
    {
      "inputs": [],
      "name": "MAX_WALLETS",
      "outputs": [
        {
          "internalType": "uint16",
          "name": "",
          "type": "uint16"
        }
      ],
      "stateMutability": "view",
      "type": "function",
      "constant": true
    },
    {
      "inputs": [
        {
          "internalType": "address",
          "name": "owner",
          "type": "address"
        },
        {
          "internalType": "address",
          "name": "spender",
          "type": "address"
        }
      ],
      "name": "allowance",
      "outputs": [
        {
          "internalType": "uint256",
          "name": "",
          "type": "uint256"
        }
      ],
      "stateMutability": "view",
      "type": "function",
      "constant": true
    },
    {
      "inputs": [
        {
          "internalType": "address",
          "name": "spender",
          "type": "address"
        },
        {
          "internalType": "uint256",
          "name": "amount",
          "type": "uint256"
        }
      ],
      "name": "approve",
      "outputs": [
        {
          "internalType": "bool",
          "name": "",
          "type": "bool"
        }
      ],
      "stateMutability": "nonpayable",
      "type": "function"
    },
    {
      "inputs": [
        {
          "internalType": "address",
          "name": "account",
          "type": "address"
        }
      ],
      "name": "balanceOf",
      "outputs": [
        {
          "internalType": "uint256",
          "name": "",
          "type": "uint256"
        }
      ],
      "stateMutability": "view",
      "type": "function",
      "constant": true
    },
    {
      "inputs": [
        {
          "internalType": "uint256",
          "name": "amount",
          "type": "uint256"
        }
      ],
      "name": "burn",
      "outputs": [],
      "stateMutability": "nonpayable",
      "type": "function"
    },
    {
      "inputs": [
        {
          "internalType": "address",
          "name": "account",
          "type": "address"
        },
        {
          "internalType": "uint256",
          "name": "amount",
          "type": "uint256"
        }
      ],
      "name": "burnFrom",
      "outputs": [],
      "stateMutability": "nonpayable",
      "type": "function"
    },
    {
      "inputs": [
        {
          "internalType": "address",
          "name": "",
          "type": "address"
        }
      ],
      "name": "contributions",
      "outputs": [
        {
          "internalType": "uint256",
          "name": "",
          "type": "uint256"
        }
      ],
      "stateMutability": "view",
      "type": "function",
      "constant": true
    },
    {
      "inputs": [],
      "name": "decimals",
      "outputs": [
        {
          "internalType": "uint8",
          "name": "",
          "type": "uint8"
        }
      ],
      "stateMutability": "view",
      "type": "function",
      "constant": true
    },
    {
      "inputs": [
        {
          "internalType": "address",
          "name": "spender",
          "type": "address"
        },
        {
          "internalType": "uint256",
          "name": "subtractedValue",
          "type": "uint256"
        }
      ],
      "name": "decreaseAllowance",
      "outputs": [
        {
          "internalType": "bool",
          "name": "",
          "type": "bool"
        }
      ],
      "stateMutability": "nonpayable",
      "type": "function"
    },
    {
      "inputs": [
        {
          "internalType": "address",
          "name": "spender",
          "type": "address"
        },
        {
          "internalType": "uint256",
          "name": "addedValue",
          "type": "uint256"
        }
      ],
      "name": "increaseAllowance",
      "outputs": [
        {
          "internalType": "bool",
          "name": "",
          "type": "bool"
        }
      ],
      "stateMutability": "nonpayable",
      "type": "function"
    },
    {
      "inputs": [],
      "name": "name",
      "outputs": [
        {
          "internalType": "string",
          "name": "",
          "type": "string"
        }
      ],
      "stateMutability": "view",
      "type": "function",
      "constant": true
    },
    {
      "inputs": [
        {
          "internalType": "address",
          "name": "owner",
          "type": "address"
        }
      ],
      "name": "nonces",
      "outputs": [
        {
          "internalType": "uint256",
          "name": "",
          "type": "uint256"
        }
      ],
      "stateMutability": "view",
      "type": "function",
      "constant": true
    },
    {
      "inputs": [],
      "name": "owner",
      "outputs": [
        {
          "internalType": "address",
          "name": "",
          "type": "address"
        }
      ],
      "stateMutability": "view",
      "type": "function",
      "constant": true
    },
    {
      "inputs": [],
      "name": "paused",
      "outputs": [
        {
          "internalType": "bool",
          "name": "",
          "type": "bool"
        }
      ],
      "stateMutability": "view",
      "type": "function",
      "constant": true
    },
    {
      "inputs": [
        {
          "internalType": "address",
          "name": "owner",
          "type": "address"
        },
        {
          "internalType": "address",
          "name": "spender",
          "type": "address"
        },
        {
          "internalType": "uint256",
          "name": "value",
          "type": "uint256"
        },
        {
          "internalType": "uint256",
          "name": "deadline",
          "type": "uint256"
        },
        {
          "internalType": "uint8",
          "name": "v",
          "type": "uint8"
        },
        {
          "internalType": "bytes32",
          "name": "r",
          "type": "bytes32"
        },
        {
          "internalType": "bytes32",
          "name": "s",
          "type": "bytes32"
        }
      ],
      "name": "permit",
      "outputs": [],
      "stateMutability": "nonpayable",
      "type": "function"
    },
    {
      "inputs": [],
      "name": "renounceOwnership",
      "outputs": [],
      "stateMutability": "nonpayable",
      "type": "function"
    },
    {
      "inputs": [],
      "name": "symbol",
      "outputs": [
        {
          "internalType": "string",
          "name": "",
          "type": "string"
        }
      ],
      "stateMutability": "view",
      "type": "function",
      "constant": true
    },
    {
      "inputs": [],
      "name": "totalContributors",
      "outputs": [
        {
          "internalType": "uint16",
          "name": "",
          "type": "uint16"
        }
      ],
      "stateMutability": "view",
      "type": "function",
      "constant": true
    },
    {
      "inputs": [],
      "name": "totalSupply",
      "outputs": [
        {
          "internalType": "uint256",
          "name": "",
          "type": "uint256"
        }
      ],
      "stateMutability": "view",
      "type": "function",
      "constant": true
    },
    {
      "inputs": [],
      "name": "totalZoomPurchased",
      "outputs": [
        {
          "internalType": "uint256",
          "name": "",
          "type": "uint256"
        }
      ],
      "stateMutability": "view",
      "type": "function",
      "constant": true
    },
    {
      "inputs": [
        {
          "internalType": "address",
          "name": "recipient",
          "type": "address"
        },
        {
          "internalType": "uint256",
          "name": "amount",
          "type": "uint256"
        }
      ],
      "name": "transfer",
      "outputs": [
        {
          "internalType": "bool",
          "name": "",
          "type": "bool"
        }
      ],
      "stateMutability": "nonpayable",
      "type": "function"
    },
    {
      "inputs": [
        {
          "internalType": "address",
          "name": "sender",
          "type": "address"
        },
        {
          "internalType": "address",
          "name": "recipient",
          "type": "address"
        },
        {
          "internalType": "uint256",
          "name": "amount",
          "type": "uint256"
        }
      ],
      "name": "transferFrom",
      "outputs": [
        {
          "internalType": "bool",
          "name": "",
          "type": "bool"
        }
      ],
      "stateMutability": "nonpayable",
      "type": "function"
    },
    {
      "inputs": [
        {
          "internalType": "address",
          "name": "newOwner",
          "type": "address"
        }
      ],
      "name": "transferOwnership",
      "outputs": [],
      "stateMutability": "nonpayable",
      "type": "function"
    },
    {
      "inputs": [],
      "name": "zoombiesContract",
      "outputs": [
        {
          "internalType": "address",
          "name": "",
          "type": "address"
        }
      ],
      "stateMutability": "view",
      "type": "function",
      "constant": true
    },
    {
      "inputs": [],
      "name": "buy",
      "outputs": [],
      "stateMutability": "payable",
      "type": "function",
      "payable": true
    },
    {
      "inputs": [],
      "name": "pause",
      "outputs": [],
      "stateMutability": "nonpayable",
      "type": "function"
    },
    {
      "inputs": [],
      "name": "unpause",
      "outputs": [],
      "stateMutability": "nonpayable",
      "type": "function"
    },
    {
      "inputs": [
        {
          "internalType": "address",
          "name": "_zoombiesContract",
          "type": "address"
        }
      ],
      "name": "setZoombiesContract",
      "outputs": [],
      "stateMutability": "nonpayable",
      "type": "function"
    },
    {
      "inputs": [
        {
          "internalType": "address",
          "name": "_to",
          "type": "address"
        },
        {
          "internalType": "uint256",
          "name": "_amount",
          "type": "uint256"
        }
      ],
      "name": "awardZoom",
      "outputs": [],
      "stateMutability": "nonpayable",
      "type": "function"
    },
    {
      "inputs": [
        {
          "internalType": "address",
          "name": "_wallet",
          "type": "address"
        },
        {
          "internalType": "uint256",
          "name": "_amount",
          "type": "uint256"
        }
      ],
      "name": "burnZoom",
      "outputs": [],
      "stateMutability": "nonpayable",
      "type": "function"
    },
    {
      "inputs": [],
      "name": "withdraw",
      "outputs": [
        {
          "internalType": "bool",
          "name": "",
          "type": "bool"
        }
      ],
      "stateMutability": "nonpayable",
      "type": "function"
    }
  ],
  "bytecode": "0x6101406040527f6e71edae12b1b97f4d1f60370fef10105fa2faae0126114a169c64845d6126c9610120526007805461ffff60a01b1916905560006008553480156200004a57600080fd5b50604051806040016040528060098152602001682d37b7b6aa37b5b2b760b91b81525080604051806040016040528060018152602001603160f81b815250604051806040016040528060098152602001682d37b7b6aa37b5b2b760b91b815250604051806040016040528060048152602001635a4f4f4d60e01b8152508160039080519060200190620000df92919062000347565b508051620000f590600490602084019062000347565b5050600580546001600160a81b0319163361010081029190911790915560405190915081906000907f8be0079c531659141344cd1fd0a4f28419497f9722a3daafe3b4186f6b6457e0908290a350815160209283012081519183019190912060c082815260e08290524660a0818152604080517f8b73c3c69bb8fe3d512ecc4cf759cc79239f7b179b0ffacaa9a75d522b39400f8189018190528183019790975260608101959095526080808601939093523085830152805180860390920182529390920190925280519301929092209091526101005250620001e5336b06765c793fa10079d0000000620001eb565b6200044f565b6001600160a01b038216620002475760405162461bcd60e51b815260206004820152601f60248201527f45524332303a206d696e7420746f20746865207a65726f20616464726573730060448201526064015b60405180910390fd5b6200025560008383620002e2565b8060026000828254620002699190620003ed565b90915550506001600160a01b0382166000908152602081905260408120805483929062000298908490620003ed565b90915550506040518181526001600160a01b038316906000907fddf252ad1be2c89b69c2b068fc378daa952ba7f163c4a11628f55a4df523b3ef9060200160405180910390a35050565b60055460ff16156200032a5760405162461bcd60e51b815260206004820152601060248201526f14185d5cd8589b194e881c185d5cd95960821b60448201526064016200023e565b620003428383836200034260201b62000a421760201c565b505050565b828054620003559062000412565b90600052602060002090601f016020900481019282620003795760008555620003c4565b82601f106200039457805160ff1916838001178555620003c4565b82800160010185558215620003c4579182015b82811115620003c4578251825591602001919060010190620003a7565b50620003d2929150620003d6565b5090565b5b80821115620003d25760008155600101620003d7565b600082198211156200040d57634e487b7160e01b81526011600452602481fd5b500190565b600181811c908216806200042757607f821691505b602082108114156200044957634e487b7160e01b600052602260045260246000fd5b50919050565b60805160a05160c05160e0516101005161012051611d686200049f6000396000610e470152600061149c015260006114eb015260006114c60152600061144a015260006114730152611d686000f3fe6080604052600436106101ee5760003560e01c806370a082311161010d57806395d89b41116100a0578063c8439e491161006f578063c8439e491461056d578063d505accf14610583578063dd62ed3e146105a3578063f251fc8c146105e9578063f2fde38b1461060b57600080fd5b806395d89b4114610510578063a457c2d714610525578063a6f2ae3a14610545578063a9059cbb1461054d57600080fd5b8063807dadef116100dc578063807dadef1461049b5780638456cb59146104bb5780638da5cb5b146104d057806394d95f8f146104f357600080fd5b806370a0823114610410578063715018a61461044657806379cc67901461045b5780637ecebe001461047b57600080fd5b806336ec0dd61161018557806342966c681161015457806342966c681461038257806342e94c90146103a25780635c975abb146103cf57806366f43753146103e757600080fd5b806336ec0dd61461031857806339509351146103385780633ccfd60b146103585780633f4ba83a1461036d57600080fd5b806321af6889116101c157806321af6889146102a557806323b872dd146102c7578063313ce567146102e75780633644e5151461030357600080fd5b806306fdde03146101f3578063095ea7b31461021e5780630c3f4e891461024e57806318160ddd14610286575b600080fd5b3480156101ff57600080fd5b5061020861062b565b6040516102159190611b86565b60405180910390f35b34801561022a57600080fd5b5061023e610239366004611b45565b6106bd565b6040519015158152602001610215565b34801561025a57600080fd5b5060075461026e906001600160a01b031681565b6040516001600160a01b039091168152602001610215565b34801561029257600080fd5b506002545b604051908152602001610215565b3480156102b157600080fd5b506102c56102c0366004611b45565b6106d3565b005b3480156102d357600080fd5b5061023e6102e2366004611a99565b61073d565b3480156102f357600080fd5b5060405160128152602001610215565b34801561030f57600080fd5b506102976107ee565b34801561032457600080fd5b506102c5610333366004611b45565b6107fd565b34801561034457600080fd5b5061023e610353366004611b45565b61085a565b34801561036457600080fd5b5061023e610891565b34801561037957600080fd5b506102c56108f8565b34801561038e57600080fd5b506102c561039d366004611b6e565b610932565b3480156103ae57600080fd5b506102976103bd366004611a46565b60096020526000908152604090205481565b3480156103db57600080fd5b5060055460ff1661023e565b3480156103f357600080fd5b506103fd6103e881565b60405161ffff9091168152602001610215565b34801561041c57600080fd5b5061029761042b366004611a46565b6001600160a01b031660009081526020819052604090205490565b34801561045257600080fd5b506102c561093f565b34801561046757600080fd5b506102c5610476366004611b45565b6109bf565b34801561048757600080fd5b50610297610496366004611a46565b610a47565b3480156104a757600080fd5b506102c56104b6366004611a46565b610a67565b3480156104c757600080fd5b506102c5610acc565b3480156104dc57600080fd5b5060055461010090046001600160a01b031661026e565b3480156104ff57600080fd5b506102976801158e460913d0000081565b34801561051c57600080fd5b50610208610b04565b34801561053157600080fd5b5061023e610540366004611b45565b610b13565b6102c5610bae565b34801561055957600080fd5b5061023e610568366004611b45565b610de6565b34801561057957600080fd5b5061029760085481565b34801561058f57600080fd5b506102c561059e366004611ad4565b610df3565b3480156105af57600080fd5b506102976105be366004611a67565b6001600160a01b03918216600090815260016020908152604080832093909416825291909152205490565b3480156105f557600080fd5b506007546103fd90600160a01b900461ffff1681565b34801561061757600080fd5b506102c5610626366004611a46565b610f57565b60606003805461063a90611ce7565b80601f016020809104026020016040519081016040528092919081815260200182805461066690611ce7565b80156106b35780601f10610688576101008083540402835291602001916106b3565b820191906000526020600020905b81548152906001019060200180831161069657829003601f168201915b5050505050905090565b60006106ca338484611053565b50600192915050565b6007546001600160a01b0316336001600160a01b03161461070f5760405162461bcd60e51b815260040161070690611c0e565b60405180910390fd5b6001600160a01b03821661072257600080fd5b6000811161072f57600080fd5b6107398282611178565b5050565b600061074a848484611263565b6001600160a01b0384166000908152600160209081526040808320338452909152902054828110156107cf5760405162461bcd60e51b815260206004820152602860248201527f45524332303a207472616e7366657220616d6f756e74206578636565647320616044820152676c6c6f77616e636560c01b6064820152608401610706565b6107e385336107de8685611cd0565b611053565b506001949350505050565b60006107f8611446565b905090565b6007546001600160a01b0316336001600160a01b0316146108305760405162461bcd60e51b815260040161070690611c0e565b6001600160a01b03821661084357600080fd5b6000811161085057600080fd5b6107398282611539565b3360008181526001602090815260408083206001600160a01b038716845290915281205490916106ca9185906107de908690611c79565b6005546000906001600160a01b036101009091041633146108c45760405162461bcd60e51b815260040161070690611bd9565b60405133904780156108fc02916000818181858888f193505050501580156108f0573d6000803e3d6000fd5b506001905090565b6005546001600160a01b036101009091041633146109285760405162461bcd60e51b815260040161070690611bd9565b610930611694565b565b61093c3382611539565b50565b6005546001600160a01b0361010090910416331461096f5760405162461bcd60e51b815260040161070690611bd9565b60055460405160009161010090046001600160a01b0316907f8be0079c531659141344cd1fd0a4f28419497f9722a3daafe3b4186f6b6457e0908390a360058054610100600160a81b0319169055565b60006109cb83336105be565b905081811015610a295760405162461bcd60e51b8152602060048201526024808201527f45524332303a206275726e20616d6f756e74206578636565647320616c6c6f77604482015263616e636560e01b6064820152608401610706565b610a3883336107de8585611cd0565b610a428383611539565b505050565b6001600160a01b0381166000908152600660205260408120545b92915050565b6005546001600160a01b03610100909104163314610a975760405162461bcd60e51b815260040161070690611bd9565b6001600160a01b038116610aaa57600080fd5b600780546001600160a01b0319166001600160a01b0392909216919091179055565b6005546001600160a01b03610100909104163314610afc5760405162461bcd60e51b815260040161070690611bd9565b610930611727565b60606004805461063a90611ce7565b3360009081526001602090815260408083206001600160a01b038616845290915281205482811015610b955760405162461bcd60e51b815260206004820152602560248201527f45524332303a2064656372656173656420616c6c6f77616e63652062656c6f77604482015264207a65726f60d81b6064820152608401610706565b610ba433856107de8685611cd0565b5060019392505050565b670de0b6b3a76400003410158015610bcf57506801158e460913d000003411155b610c2e5760405162461bcd60e51b815260206004820152602a60248201527f436f6e747269627574696f6e206d757374206265206265747765656e2031206160448201526937321019181026a7ab2960b11b6064820152608401610706565b336000908152600960205260409020546801158e460913d0000090610c54903490611c79565b1115610cb55760405162461bcd60e51b815260206004820152602a60248201527f4d6178696d756d20636f6e747269627574696f6e207065722077616c6c65742060448201526934b99019181026a7ab2960b11b6064820152608401610706565b6007546103e8600160a01b90910461ffff1610801590610ce2575033600090815260096020526040902054155b15610d455760405162461bcd60e51b815260206004820152602d60248201527f4d6178696d756d206f66203130303020636f6e7472696275746f72732068617360448201526c081899595b881c995858da1959609a1b6064820152608401610706565b33600090815260096020526040902054610d8f57600754610d7290600160a01b900461ffff166001611c53565b600760146101000a81548161ffff021916908361ffff1602179055505b3360009081526009602052604081208054349290610dae908490611c79565b90915550610dbd9050346117a2565b60086000828254610dce9190611c79565b90915550610930905033610de1346117a2565b611178565b60006106ca338484611263565b83421115610e435760405162461bcd60e51b815260206004820152601d60248201527f45524332305065726d69743a206578706972656420646561646c696e650000006044820152606401610706565b60007f0000000000000000000000000000000000000000000000000000000000000000888888610e728c6117c5565b6040805160208101969096526001600160a01b0394851690860152929091166060840152608083015260a082015260c0810186905260e0016040516020818303038152906040528051906020012090506000610ecd826117ed565b90506000610edd8287878761183b565b9050896001600160a01b0316816001600160a01b031614610f405760405162461bcd60e51b815260206004820152601e60248201527f45524332305065726d69743a20696e76616c6964207369676e617475726500006044820152606401610706565b610f4b8a8a8a611053565b50505050505050505050565b6005546001600160a01b03610100909104163314610f875760405162461bcd60e51b815260040161070690611bd9565b6001600160a01b038116610fec5760405162461bcd60e51b815260206004820152602660248201527f4f776e61626c653a206e6577206f776e657220697320746865207a65726f206160448201526564647265737360d01b6064820152608401610706565b6005546040516001600160a01b0380841692610100900416907f8be0079c531659141344cd1fd0a4f28419497f9722a3daafe3b4186f6b6457e090600090a3600580546001600160a01b0390921661010002610100600160a81b0319909216919091179055565b6001600160a01b0383166110b55760405162461bcd60e51b8152602060048201526024808201527f45524332303a20617070726f76652066726f6d20746865207a65726f206164646044820152637265737360e01b6064820152608401610706565b6001600160a01b0382166111165760405162461bcd60e51b815260206004820152602260248201527f45524332303a20617070726f766520746f20746865207a65726f206164647265604482015261737360f01b6064820152608401610706565b6001600160a01b0383811660008181526001602090815260408083209487168084529482529182902085905590518481527f8c5be1e5ebec7d5bd14f71427d1e84f3dd0314c0f7b2291e5b200ac8c7c3b92591015b60405180910390a3505050565b6001600160a01b0382166111ce5760405162461bcd60e51b815260206004820152601f60248201527f45524332303a206d696e7420746f20746865207a65726f2061646472657373006044820152606401610706565b6111da600083836119e4565b80600260008282546111ec9190611c79565b90915550506001600160a01b03821660009081526020819052604081208054839290611219908490611c79565b90915550506040518181526001600160a01b038316906000907fddf252ad1be2c89b69c2b068fc378daa952ba7f163c4a11628f55a4df523b3ef9060200160405180910390a35050565b6001600160a01b0383166112c75760405162461bcd60e51b815260206004820152602560248201527f45524332303a207472616e736665722066726f6d20746865207a65726f206164604482015264647265737360d81b6064820152608401610706565b6001600160a01b0382166113295760405162461bcd60e51b815260206004820152602360248201527f45524332303a207472616e7366657220746f20746865207a65726f206164647260448201526265737360e81b6064820152608401610706565b6113348383836119e4565b6001600160a01b038316600090815260208190526040902054818110156113ac5760405162461bcd60e51b815260206004820152602660248201527f45524332303a207472616e7366657220616d6f756e7420657863656564732062604482015265616c616e636560d01b6064820152608401610706565b6113b68282611cd0565b6001600160a01b0380861660009081526020819052604080822093909355908516815290812080548492906113ec908490611c79565b92505081905550826001600160a01b0316846001600160a01b03167fddf252ad1be2c89b69c2b068fc378daa952ba7f163c4a11628f55a4df523b3ef8460405161143891815260200190565b60405180910390a350505050565b60007f000000000000000000000000000000000000000000000000000000000000000046141561149557507f000000000000000000000000000000000000000000000000000000000000000090565b50604080517f00000000000000000000000000000000000000000000000000000000000000006020808301919091527f0000000000000000000000000000000000000000000000000000000000000000828401527f000000000000000000000000000000000000000000000000000000000000000060608301524660808301523060a0808401919091528351808403909101815260c0909201909252805191012090565b6001600160a01b0382166115995760405162461bcd60e51b815260206004820152602160248201527f45524332303a206275726e2066726f6d20746865207a65726f206164647265736044820152607360f81b6064820152608401610706565b6115a5826000836119e4565b6001600160a01b038216600090815260208190526040902054818110156116195760405162461bcd60e51b815260206004820152602260248201527f45524332303a206275726e20616d6f756e7420657863656564732062616c616e604482015261636560f01b6064820152608401610706565b6116238282611cd0565b6001600160a01b03841660009081526020819052604081209190915560028054849290611651908490611cd0565b90915550506040518281526000906001600160a01b038516907fddf252ad1be2c89b69c2b068fc378daa952ba7f163c4a11628f55a4df523b3ef9060200161116b565b60055460ff166116dd5760405162461bcd60e51b815260206004820152601460248201527314185d5cd8589b194e881b9bdd081c185d5cd95960621b6044820152606401610706565b6005805460ff191690557f5db9ee0a495bf2e6ff9c91a7834c1ba4fdd244a5e8aa4e537bd38aeae4b073aa335b6040516001600160a01b03909116815260200160405180910390a1565b60055460ff161561176d5760405162461bcd60e51b815260206004820152601060248201526f14185d5cd8589b194e881c185d5cd95960821b6044820152606401610706565b6005805460ff191660011790557f62e78cea01bee320cd4e420270b5ea74000d11b0c9f74754ebdbfc544b05a25861170a3390565b60006117b364174876e80083611c91565b610a6190670de0b6b3a7640000611cb1565b6001600160a01b03811660009081526006602052604090208054600181018255905b50919050565b6000610a616117fa611446565b8360405161190160f01b6020820152602281018390526042810182905260009060620160405160208183030381529060405280519060200120905092915050565b60007f7fffffffffffffffffffffffffffffff5d576e7357a4501ddfe92f46681b20a08211156118b85760405162461bcd60e51b815260206004820152602260248201527f45434453413a20696e76616c6964207369676e6174757265202773272076616c604482015261756560f01b6064820152608401610706565b8360ff16601b14806118cd57508360ff16601c145b6119245760405162461bcd60e51b815260206004820152602260248201527f45434453413a20696e76616c6964207369676e6174757265202776272076616c604482015261756560f01b6064820152608401610706565b6040805160008082526020820180845288905260ff871692820192909252606081018590526080810184905260019060a0016020604051602081039080840390855afa158015611978573d6000803e3d6000fd5b5050604051601f1901519150506001600160a01b0381166119db5760405162461bcd60e51b815260206004820152601860248201527f45434453413a20696e76616c6964207369676e617475726500000000000000006044820152606401610706565b95945050505050565b60055460ff1615610a425760405162461bcd60e51b815260206004820152601060248201526f14185d5cd8589b194e881c185d5cd95960821b6044820152606401610706565b80356001600160a01b0381168114611a4157600080fd5b919050565b600060208284031215611a57578081fd5b611a6082611a2a565b9392505050565b60008060408385031215611a79578081fd5b611a8283611a2a565b9150611a9060208401611a2a565b90509250929050565b600080600060608486031215611aad578081fd5b611ab684611a2a565b9250611ac460208501611a2a565b9150604084013590509250925092565b600080600080600080600060e0888a031215611aee578283fd5b611af788611a2a565b9650611b0560208901611a2a565b95506040880135945060608801359350608088013560ff81168114611b28578384fd5b9699959850939692959460a0840135945060c09093013592915050565b60008060408385031215611b57578182fd5b611b6083611a2a565b946020939093013593505050565b600060208284031215611b7f578081fd5b5035919050565b6000602080835283518082850152825b81811015611bb257858101830151858201604001528201611b96565b81811115611bc35783604083870101525b50601f01601f1916929092016040019392505050565b6020808252818101527f4f776e61626c653a2063616c6c6572206973206e6f7420746865206f776e6572604082015260600190565b60208082526025908201527f43616c6c6572206e6f7420617574686f72697a656420666f722074686973206160408201526431ba34b7b760d91b606082015260800190565b600061ffff808316818516808303821115611c7057611c70611d1c565b01949350505050565b60008219821115611c8c57611c8c611d1c565b500190565b600082611cac57634e487b7160e01b81526012600452602481fd5b500490565b6000816000190483118215151615611ccb57611ccb611d1c565b500290565b600082821015611ce257611ce2611d1c565b500390565b600181811c90821680611cfb57607f821691505b602082108114156117e757634e487b7160e01b600052602260045260246000fd5b634e487b7160e01b600052601160045260246000fdfea264697066735822122061149f41f0d6d0a3f1890ff1e0a8ef584671fee49611dff75015bf66810cae2e64736f6c63430008040033",
  "immutableReferences": {
    "900": [
      {
        "length": 32,
        "start": 3655
      }
    ],
    "3188": [
      {
        "length": 32,
        "start": 5235
      }
    ],
    "3190": [
      {
        "length": 32,
        "start": 5194
      }
    ],
    "3192": [
      {
        "length": 32,
        "start": 5318
      }
    ],
    "3194": [
      {
        "length": 32,
        "start": 5355
      }
    ],
    "3196": [
      {
        "length": 32,
        "start": 5276
      }
    ]
  },
  "source": "// SPDX-License-Identifier: MIT\npragma solidity ^0.8.4;\n\nimport \"@openzeppelin/contracts/token/ERC20/ERC20.sol\";\nimport \"@openzeppelin/contracts/token/ERC20/extensions/ERC20Burnable.sol\";\nimport \"@openzeppelin/contracts/security/Pausable.sol\";\nimport \"@openzeppelin/contracts/access/Ownable.sol\";\nimport \"@openzeppelin/contracts/token/ERC20/extensions/draft-ERC20Permit.sol\";\n\n\ncontract ZoomToken is ERC20, ERC20Burnable, Pausable, Ownable, ERC20Permit {\n    constructor() ERC20(\"ZoomToken\", \"ZOOM\") ERC20Permit(\"ZoomToken\") {\n        //Mint Liquidity provider tokens\n        _mint(msg.sender, 2000000000e18); // 2 Bil Zoom\n    }\n\n    uint16 constant public MAX_WALLETS = 1000;\n    uint256 constant public MAX_CONTRIBUTION = 20000000000000000000; // 20 MOVR\n    address public zoombiesContract;\n    uint16 public totalContributors = 0; //LIVE\n    uint256 public totalZoomPurchased = 0;\n\n    //Storage\n      //supporters\n    mapping (address => uint256) public contributions;    // MOVR contributed per address\n\n    modifier onlyAuthorizedContract() {\n        require(_msgSender() == zoombiesContract, \"Caller not authorized for this action\");\n        _;\n    }\n\n    //Available only during TGE\n    function buy() external payable {\n        require(msg.value >= 1 ether && (msg.value <= MAX_CONTRIBUTION), \"Contribution must be between 1 and 20 MOVR\");\n        require((contributions[_msgSender()] + msg.value) <= MAX_CONTRIBUTION,\n        \"Maximum contribution per wallet is 20 MOVR\");\n\n        if (totalContributors >= MAX_WALLETS && contributions[_msgSender()] == 0) {\n            revert(\"Maximum of 1000 contributors has been reached\");\n        }\n\n      //All clear ?\n        if (contributions[_msgSender()] == 0) {\n            totalContributors = totalContributors + 1;\n        }\n\n        //track total contributions per wallet\n        contributions[_msgSender()] += msg.value;\n        totalZoomPurchased += convertWeiToZoom(msg.value);\n\n        _mint(_msgSender(), convertWeiToZoom(msg.value));\n    }\n\n    function pause() public onlyOwner {\n        _pause();\n    }\n\n    function unpause() public onlyOwner {\n        _unpause();\n    }\n\n    function setZoombiesContract(address _zoombiesContract) public onlyOwner {\n        require(_zoombiesContract != address(0x0));\n        zoombiesContract = _zoombiesContract;\n    }\n\n    /**\n     *  Called in from our ERC721 contract actions\n     */\n    function awardZoom(address _to, uint256 _amount) public onlyAuthorizedContract {\n        require(_to != address(0));\n        require(_amount > 0);\n\n        _mint(_to, _amount);\n    }\n\n    /**\n     *  Called in from our ERC721 contract actions\n     */\n    function burnZoom(address _wallet, uint256 _amount) public onlyAuthorizedContract {\n        require(_wallet != address(0));\n        require(_amount > 0);\n\n        _burn(_wallet, _amount);\n    }\n\n   /**\n    * Withdraw balance to wallet\n    */\n    function withdraw() public onlyOwner returns(bool) {\n        payable(_msgSender()).transfer(address(this).balance);\n        return true;\n    }\n\n/* INTERNAL */\n    function _beforeTokenTransfer(address from, address to, uint256 amount)\n        internal\n        whenNotPaused\n        override\n    {\n        super._beforeTokenTransfer(from, to, amount);\n    }\n\n     /**\n      * Our base conversion rate for the TGE\n      */\n    function convertWeiToZoom(uint weiToConvert) internal pure returns (uint) {\n          // 1 ZOOM = 100000000000 wei;\n        return (weiToConvert/100000000000) * 1e18;\n    }\n}\n",
  "sourcePath": "/home/ryanpricelondon/Zoombies/contracts/ZoomToken.sol",
  "compiler": {
    "name": "solc",
    "version": "0.8.4+commit.c7e474f2.Emscripten.clang"
  },
  "schemaVersion": "3.4.3",
  "updatedAt": "2021-09-21T05:22:41.199Z",
  "networkType": "ethereum",
  "devdoc": {
    "kind": "dev",
    "methods": {
      "DOMAIN_SEPARATOR()": {
        "details": "See {IERC20Permit-DOMAIN_SEPARATOR}."
      },
      "allowance(address,address)": {
        "details": "See {IERC20-allowance}."
      },
      "approve(address,uint256)": {
        "details": "See {IERC20-approve}. Requirements: - `spender` cannot be the zero address."
      },
      "balanceOf(address)": {
        "details": "See {IERC20-balanceOf}."
      },
      "burn(uint256)": {
        "details": "Destroys `amount` tokens from the caller. See {ERC20-_burn}."
      },
      "burnFrom(address,uint256)": {
        "details": "Destroys `amount` tokens from `account`, deducting from the caller's allowance. See {ERC20-_burn} and {ERC20-allowance}. Requirements: - the caller must have allowance for ``accounts``'s tokens of at least `amount`."
      },
      "decimals()": {
        "details": "Returns the number of decimals used to get its user representation. For example, if `decimals` equals `2`, a balance of `505` tokens should be displayed to a user as `5,05` (`505 / 10 ** 2`). Tokens usually opt for a value of 18, imitating the relationship between Ether and Wei. This is the value {ERC20} uses, unless this function is overridden; NOTE: This information is only used for _display_ purposes: it in no way affects any of the arithmetic of the contract, including {IERC20-balanceOf} and {IERC20-transfer}."
      },
      "decreaseAllowance(address,uint256)": {
        "details": "Atomically decreases the allowance granted to `spender` by the caller. This is an alternative to {approve} that can be used as a mitigation for problems described in {IERC20-approve}. Emits an {Approval} event indicating the updated allowance. Requirements: - `spender` cannot be the zero address. - `spender` must have allowance for the caller of at least `subtractedValue`."
      },
      "increaseAllowance(address,uint256)": {
        "details": "Atomically increases the allowance granted to `spender` by the caller. This is an alternative to {approve} that can be used as a mitigation for problems described in {IERC20-approve}. Emits an {Approval} event indicating the updated allowance. Requirements: - `spender` cannot be the zero address."
      },
      "name()": {
        "details": "Returns the name of the token."
      },
      "nonces(address)": {
        "details": "See {IERC20Permit-nonces}."
      },
      "owner()": {
        "details": "Returns the address of the current owner."
      },
      "paused()": {
        "details": "Returns true if the contract is paused, and false otherwise."
      },
      "permit(address,address,uint256,uint256,uint8,bytes32,bytes32)": {
        "details": "See {IERC20Permit-permit}."
      },
      "renounceOwnership()": {
        "details": "Leaves the contract without owner. It will not be possible to call `onlyOwner` functions anymore. Can only be called by the current owner. NOTE: Renouncing ownership will leave the contract without an owner, thereby removing any functionality that is only available to the owner."
      },
      "symbol()": {
        "details": "Returns the symbol of the token, usually a shorter version of the name."
      },
      "totalSupply()": {
        "details": "See {IERC20-totalSupply}."
      },
      "transfer(address,uint256)": {
        "details": "See {IERC20-transfer}. Requirements: - `recipient` cannot be the zero address. - the caller must have a balance of at least `amount`."
      },
      "transferFrom(address,address,uint256)": {
        "details": "See {IERC20-transferFrom}. Emits an {Approval} event indicating the updated allowance. This is not required by the EIP. See the note at the beginning of {ERC20}. Requirements: - `sender` and `recipient` cannot be the zero address. - `sender` must have a balance of at least `amount`. - the caller must have allowance for ``sender``'s tokens of at least `amount`."
      },
      "transferOwnership(address)": {
        "details": "Transfers ownership of the contract to a new account (`newOwner`). Can only be called by the current owner."
      }
    },
    "version": 1
  },
  "userdoc": {
    "kind": "user",
    "methods": {
      "awardZoom(address,uint256)": {
        "notice": "Called in from our ERC721 contract actions"
      },
      "burnZoom(address,uint256)": {
        "notice": "Called in from our ERC721 contract actions"
      },
      "withdraw()": {
        "notice": "Withdraw balance to wallet"
      }
    },
    "version": 1
  }
}