{
  "contractName": "Zoombies",
  "abi": [
    {
      "inputs": [
        {
          "internalType": "address",
          "name": "_zoomTokenContract",
          "type": "address"
        }
      ],
      "stateMutability": "nonpayable",
      "type": "constructor"
    },
    {
      "anonymous": false,
      "inputs": [
        {
          "indexed": true,
          "internalType": "address",
          "name": "owner",
          "type": "address"
        },
        {
          "indexed": true,
          "internalType": "address",
          "name": "approved",
          "type": "address"
        },
        {
          "indexed": true,
          "internalType": "uint256",
          "name": "tokenId",
          "type": "uint256"
        }
      ],
      "name": "Approval",
      "type": "event"
    },
    {
      "anonymous": false,
      "inputs": [
        {
          "indexed": true,
          "internalType": "address",
          "name": "owner",
          "type": "address"
        },
        {
          "indexed": true,
          "internalType": "address",
          "name": "operator",
          "type": "address"
        },
        {
          "indexed": false,
          "internalType": "bool",
          "name": "approved",
          "type": "bool"
        }
      ],
      "name": "ApprovalForAll",
      "type": "event"
    },
    {
      "anonymous": false,
      "inputs": [
        {
          "indexed": true,
          "internalType": "address",
          "name": "buyer",
          "type": "address"
        },
        {
          "indexed": false,
          "internalType": "uint256",
          "name": "tokenId",
          "type": "uint256"
        },
        {
          "indexed": true,
          "internalType": "uint32",
          "name": "cardTypeId",
          "type": "uint32"
        },
        {
          "indexed": false,
          "internalType": "uint256",
          "name": "editionNumber",
          "type": "uint256"
        }
      ],
      "name": "LogCardMinted",
      "type": "event"
    },
    {
      "anonymous": false,
      "inputs": [
        {
          "indexed": true,
          "internalType": "uint32",
          "name": "cardTypeId",
          "type": "uint32"
        },
        {
          "indexed": false,
          "internalType": "string",
          "name": "cardName",
          "type": "string"
        },
        {
          "indexed": false,
          "internalType": "uint256",
          "name": "editionTotal",
          "type": "uint256"
        }
      ],
      "name": "LogCardTypeLoaded",
      "type": "event"
    },
    {
      "anonymous": false,
      "inputs": [
        {
          "indexed": false,
          "internalType": "address",
          "name": "player",
          "type": "address"
        },
        {
          "indexed": false,
          "internalType": "uint256",
          "name": "newBoosterBalance",
          "type": "uint256"
        }
      ],
      "name": "LogDailyReward",
      "type": "event"
    },
    {
      "anonymous": false,
      "inputs": [
        {
          "indexed": true,
          "internalType": "address",
          "name": "buyer",
          "type": "address"
        },
        {
          "indexed": false,
          "internalType": "uint8",
          "name": "rarity",
          "type": "uint8"
        }
      ],
      "name": "LogPackOpened",
      "type": "event"
    },
    {
      "anonymous": false,
      "inputs": [
        {
          "indexed": false,
          "internalType": "address",
          "name": "winner",
          "type": "address"
        },
        {
          "indexed": false,
          "internalType": "uint256",
          "name": "boostersAwarded",
          "type": "uint256"
        }
      ],
      "name": "LogRewardBoosters",
      "type": "event"
    },
    {
      "anonymous": false,
      "inputs": [
        {
          "indexed": false,
          "internalType": "address",
          "name": "owner",
          "type": "address"
        },
        {
          "indexed": false,
          "internalType": "uint256",
          "name": "tokenId",
          "type": "uint256"
        },
        {
          "indexed": false,
          "internalType": "uint16",
          "name": "cardTypeId",
          "type": "uint16"
        },
        {
          "indexed": false,
          "internalType": "uint256",
          "name": "zoomGained",
          "type": "uint256"
        }
      ],
      "name": "LogSacrificeNFT",
      "type": "event"
    },
    {
      "anonymous": false,
      "inputs": [
        {
          "indexed": false,
          "internalType": "address",
          "name": "sponsor",
          "type": "address"
        },
        {
          "indexed": false,
          "internalType": "address",
          "name": "affiliate",
          "type": "address"
        }
      ],
      "name": "LogSponsorLinked",
      "type": "event"
    },
    {
      "anonymous": false,
      "inputs": [
        {
          "indexed": false,
          "internalType": "address",
          "name": "sponsor",
          "type": "address"
        },
        {
          "indexed": false,
          "internalType": "address",
          "name": "affiliate",
          "type": "address"
        },
        {
          "indexed": false,
          "internalType": "uint256",
          "name": "zoomReward",
          "type": "uint256"
        }
      ],
      "name": "LogSponsorReward",
      "type": "event"
    },
    {
      "anonymous": false,
      "inputs": [
        {
          "indexed": true,
          "internalType": "address",
          "name": "previousOwner",
          "type": "address"
        },
        {
          "indexed": true,
          "internalType": "address",
          "name": "newOwner",
          "type": "address"
        }
      ],
      "name": "OwnershipTransferred",
      "type": "event"
    },
    {
      "anonymous": false,
      "inputs": [
        {
          "indexed": false,
          "internalType": "address",
          "name": "account",
          "type": "address"
        }
      ],
      "name": "Paused",
      "type": "event"
    },
    {
      "anonymous": false,
      "inputs": [
        {
          "indexed": false,
          "internalType": "uint256",
          "name": "epic",
          "type": "uint256"
        },
        {
          "indexed": false,
          "internalType": "uint256",
          "name": "rare",
          "type": "uint256"
        },
        {
          "indexed": false,
          "internalType": "uint256",
          "name": "uncommon",
          "type": "uint256"
        },
        {
          "indexed": false,
          "internalType": "uint256",
          "name": "common",
          "type": "uint256"
        }
      ],
      "name": "Probs",
      "type": "event"
    },
    {
      "anonymous": false,
      "inputs": [
        {
          "indexed": true,
          "internalType": "address",
          "name": "from",
          "type": "address"
        },
        {
          "indexed": true,
          "internalType": "address",
          "name": "to",
          "type": "address"
        },
        {
          "indexed": true,
          "internalType": "uint256",
          "name": "tokenId",
          "type": "uint256"
        }
      ],
      "name": "Transfer",
      "type": "event"
    },
    {
      "anonymous": false,
      "inputs": [
        {
          "indexed": false,
          "internalType": "address",
          "name": "account",
          "type": "address"
        }
      ],
      "name": "Unpaused",
      "type": "event"
    },
    {
      "inputs": [],
      "name": "MAX_CARD_TYPES",
      "outputs": [
        {
          "internalType": "uint16",
          "name": "",
          "type": "uint16"
        }
      ],
      "stateMutability": "view",
      "type": "function",
      "constant": true
    },
    {
      "inputs": [],
      "name": "ZOOM_BASE_COST",
      "outputs": [
        {
          "internalType": "uint256",
          "name": "",
          "type": "uint256"
        }
      ],
      "stateMutability": "view",
      "type": "function",
      "constant": true
    },
    {
      "inputs": [
        {
          "internalType": "uint8",
          "name": "",
          "type": "uint8"
        },
        {
          "internalType": "uint256",
          "name": "",
          "type": "uint256"
        }
      ],
      "name": "allBoosterCardIds",
      "outputs": [
        {
          "internalType": "uint16",
          "name": "",
          "type": "uint16"
        }
      ],
      "stateMutability": "view",
      "type": "function",
      "constant": true
    },
    {
      "inputs": [
        {
          "internalType": "uint16",
          "name": "",
          "type": "uint16"
        }
      ],
      "name": "allCardTypes",
      "outputs": [
        {
          "internalType": "uint16",
          "name": "cardTypeId",
          "type": "uint16"
        },
        {
          "internalType": "string",
          "name": "name",
          "type": "string"
        },
        {
          "internalType": "string",
          "name": "set",
          "type": "string"
        },
        {
          "internalType": "uint8",
          "name": "assetType",
          "type": "uint8"
        },
        {
          "internalType": "uint8",
          "name": "notStoreOrBonus",
          "type": "uint8"
        },
        {
          "internalType": "uint8",
          "name": "rarity",
          "type": "uint8"
        },
        {
          "internalType": "uint16",
          "name": "totalAvailable",
          "type": "uint16"
        },
        {
          "internalType": "uint256",
          "name": "weiCost",
          "type": "uint256"
        },
        {
          "internalType": "uint256",
          "name": "buyZoom",
          "type": "uint256"
        },
        {
          "internalType": "uint256",
          "name": "sacrificeZoom",
          "type": "uint256"
        },
        {
          "internalType": "uint256",
          "name": "unlockZoom",
          "type": "uint256"
        },
        {
          "internalType": "uint8",
          "name": "cardLevel",
          "type": "uint8"
        }
      ],
      "stateMutability": "view",
      "type": "function",
      "constant": true
    },
    {
      "inputs": [
        {
          "internalType": "address",
          "name": "to",
          "type": "address"
        },
        {
          "internalType": "uint256",
          "name": "tokenId",
          "type": "uint256"
        }
      ],
      "name": "approve",
      "outputs": [],
      "stateMutability": "nonpayable",
      "type": "function"
    },
    {
      "inputs": [
        {
          "internalType": "address",
          "name": "owner",
          "type": "address"
        }
      ],
      "name": "balanceOf",
      "outputs": [
        {
          "internalType": "uint256",
          "name": "",
          "type": "uint256"
        }
      ],
      "stateMutability": "view",
      "type": "function",
      "constant": true
    },
    {
      "inputs": [
        {
          "internalType": "uint256",
          "name": "",
          "type": "uint256"
        }
      ],
      "name": "baseProbability",
      "outputs": [
        {
          "internalType": "uint256",
          "name": "",
          "type": "uint256"
        }
      ],
      "stateMutability": "view",
      "type": "function",
      "constant": true
    },
    {
      "inputs": [
        {
          "internalType": "address",
          "name": "",
          "type": "address"
        }
      ],
      "name": "boosterCreditsOwned",
      "outputs": [
        {
          "internalType": "uint256",
          "name": "",
          "type": "uint256"
        }
      ],
      "stateMutability": "view",
      "type": "function",
      "constant": true
    },
    {
      "inputs": [
        {
          "internalType": "uint256",
          "name": "tokenId",
          "type": "uint256"
        }
      ],
      "name": "burn",
      "outputs": [],
      "stateMutability": "nonpayable",
      "type": "function"
    },
    {
      "inputs": [
        {
          "internalType": "uint256",
          "name": "zoomWager",
          "type": "uint256"
        }
      ],
      "name": "burnAndBoost",
      "outputs": [
        {
          "internalType": "uint256[7]",
          "name": "",
          "type": "uint256[7]"
        }
      ],
      "stateMutability": "nonpayable",
      "type": "function"
    },
    {
      "inputs": [
        {
          "internalType": "uint16",
          "name": "",
          "type": "uint16"
        }
      ],
      "name": "cardTypeToEdition",
      "outputs": [
        {
          "internalType": "uint256",
          "name": "",
          "type": "uint256"
        }
      ],
      "stateMutability": "view",
      "type": "function",
      "constant": true
    },
    {
      "inputs": [
        {
          "internalType": "address",
          "name": "",
          "type": "address"
        },
        {
          "internalType": "uint16",
          "name": "",
          "type": "uint16"
        }
      ],
      "name": "cardTypesOwned",
      "outputs": [
        {
          "internalType": "bool",
          "name": "",
          "type": "bool"
        }
      ],
      "stateMutability": "view",
      "type": "function",
      "constant": true
    },
    {
      "inputs": [
        {
          "internalType": "uint256",
          "name": "tokenId",
          "type": "uint256"
        }
      ],
      "name": "getApproved",
      "outputs": [
        {
          "internalType": "address",
          "name": "",
          "type": "address"
        }
      ],
      "stateMutability": "view",
      "type": "function",
      "constant": true
    },
    {
      "inputs": [
        {
          "internalType": "uint256",
          "name": "_tokenId",
          "type": "uint256"
        }
      ],
      "name": "getNFTData",
      "outputs": [
        {
          "internalType": "uint16",
          "name": "",
          "type": "uint16"
        },
        {
          "internalType": "uint256",
          "name": "",
          "type": "uint256"
        }
      ],
      "stateMutability": "view",
      "type": "function",
      "constant": true
    },
    {
      "inputs": [
        {
          "internalType": "uint256",
          "name": "wager",
          "type": "uint256"
        }
      ],
      "name": "getProbs",
      "outputs": [
        {
          "internalType": "uint256",
          "name": "c",
          "type": "uint256"
        },
        {
          "internalType": "uint256",
          "name": "u",
          "type": "uint256"
        },
        {
          "internalType": "uint256",
          "name": "r",
          "type": "uint256"
        },
        {
          "internalType": "uint256",
          "name": "e",
          "type": "uint256"
        }
      ],
      "stateMutability": "nonpayable",
      "type": "function"
    },
    {
      "inputs": [],
      "name": "getTokensByRarity",
      "outputs": [
        {
          "internalType": "uint256",
          "name": "",
          "type": "uint256"
        },
        {
          "internalType": "uint256",
          "name": "",
          "type": "uint256"
        },
        {
          "internalType": "uint256",
          "name": "",
          "type": "uint256"
        },
        {
          "internalType": "uint256",
          "name": "",
          "type": "uint256"
        },
        {
          "internalType": "uint256",
          "name": "",
          "type": "uint256"
        },
        {
          "internalType": "uint256",
          "name": "",
          "type": "uint256"
        }
      ],
      "stateMutability": "view",
      "type": "function",
      "constant": true
    },
    {
      "inputs": [
        {
          "internalType": "address",
          "name": "owner",
          "type": "address"
        },
        {
          "internalType": "address",
          "name": "operator",
          "type": "address"
        }
      ],
      "name": "isApprovedForAll",
      "outputs": [
        {
          "internalType": "bool",
          "name": "",
          "type": "bool"
        }
      ],
      "stateMutability": "view",
      "type": "function",
      "constant": true
    },
    {
      "inputs": [
        {
          "internalType": "uint16",
          "name": "_cardTypeId",
          "type": "uint16"
        },
        {
          "internalType": "string",
          "name": "_name",
          "type": "string"
        },
        {
          "internalType": "string",
          "name": "_set",
          "type": "string"
        },
        {
          "internalType": "uint8",
          "name": "_assetType",
          "type": "uint8"
        },
        {
          "internalType": "uint8",
          "name": "_notStoreOrBonus",
          "type": "uint8"
        },
        {
          "internalType": "uint8",
          "name": "_rarity",
          "type": "uint8"
        },
        {
          "internalType": "uint16",
          "name": "_totalAvailable",
          "type": "uint16"
        },
        {
          "internalType": "uint256",
          "name": "_weiCost",
          "type": "uint256"
        },
        {
          "internalType": "uint256",
          "name": "_buyZoom",
          "type": "uint256"
        },
        {
          "internalType": "uint256",
          "name": "_sacrificeZoom",
          "type": "uint256"
        },
        {
          "internalType": "uint256",
          "name": "_unlockZoom",
          "type": "uint256"
        },
        {
          "internalType": "uint8",
          "name": "_cardLevel",
          "type": "uint8"
        }
      ],
      "name": "loadNewCardType",
      "outputs": [],
      "stateMutability": "nonpayable",
      "type": "function"
    },
    {
      "inputs": [],
      "name": "maxBoostersRewards",
      "outputs": [
        {
          "internalType": "uint16",
          "name": "",
          "type": "uint16"
        }
      ],
      "stateMutability": "view",
      "type": "function",
      "constant": true
    },
    {
      "inputs": [],
      "name": "name",
      "outputs": [
        {
          "internalType": "string",
          "name": "",
          "type": "string"
        }
      ],
      "stateMutability": "view",
      "type": "function",
      "constant": true
    },
    {
      "inputs": [
        {
          "internalType": "uint256",
          "name": "",
          "type": "uint256"
        }
      ],
      "name": "nfts",
      "outputs": [
        {
          "internalType": "uint16",
          "name": "cardTypeId",
          "type": "uint16"
        },
        {
          "internalType": "uint256",
          "name": "editionNumber",
          "type": "uint256"
        }
      ],
      "stateMutability": "view",
      "type": "function",
      "constant": true
    },
    {
      "inputs": [],
      "name": "owner",
      "outputs": [
        {
          "internalType": "address",
          "name": "",
          "type": "address"
        }
      ],
      "stateMutability": "view",
      "type": "function",
      "constant": true
    },
    {
      "inputs": [
        {
          "internalType": "uint256",
          "name": "tokenId",
          "type": "uint256"
        }
      ],
      "name": "ownerOf",
      "outputs": [
        {
          "internalType": "address",
          "name": "",
          "type": "address"
        }
      ],
      "stateMutability": "view",
      "type": "function",
      "constant": true
    },
    {
      "inputs": [],
      "name": "paused",
      "outputs": [
        {
          "internalType": "bool",
          "name": "",
          "type": "bool"
        }
      ],
      "stateMutability": "view",
      "type": "function",
      "constant": true
    },
    {
      "inputs": [],
      "name": "renounceOwnership",
      "outputs": [],
      "stateMutability": "nonpayable",
      "type": "function"
    },
    {
      "inputs": [
        {
          "internalType": "address",
          "name": "from",
          "type": "address"
        },
        {
          "internalType": "address",
          "name": "to",
          "type": "address"
        },
        {
          "internalType": "uint256",
          "name": "tokenId",
          "type": "uint256"
        }
      ],
      "name": "safeTransferFrom",
      "outputs": [],
      "stateMutability": "nonpayable",
      "type": "function"
    },
    {
      "inputs": [
        {
          "internalType": "address",
          "name": "from",
          "type": "address"
        },
        {
          "internalType": "address",
          "name": "to",
          "type": "address"
        },
        {
          "internalType": "uint256",
          "name": "tokenId",
          "type": "uint256"
        },
        {
          "internalType": "bytes",
          "name": "_data",
          "type": "bytes"
        }
      ],
      "name": "safeTransferFrom",
      "outputs": [],
      "stateMutability": "nonpayable",
      "type": "function"
    },
    {
      "inputs": [
        {
          "internalType": "address",
          "name": "operator",
          "type": "address"
        },
        {
          "internalType": "bool",
          "name": "approved",
          "type": "bool"
        }
      ],
      "name": "setApprovalForAll",
      "outputs": [],
      "stateMutability": "nonpayable",
      "type": "function"
    },
    {
      "inputs": [
        {
          "internalType": "uint16",
          "name": "_cardTypeId",
          "type": "uint16"
        },
        {
          "internalType": "uint256",
          "name": "_hoursFromNow",
          "type": "uint256"
        }
      ],
      "name": "setStoreRelease",
      "outputs": [],
      "stateMutability": "nonpayable",
      "type": "function"
    },
    {
      "inputs": [
        {
          "internalType": "address",
          "name": "",
          "type": "address"
        }
      ],
      "name": "sponsors",
      "outputs": [
        {
          "internalType": "address",
          "name": "",
          "type": "address"
        }
      ],
      "stateMutability": "view",
      "type": "function",
      "constant": true
    },
    {
      "inputs": [
        {
          "internalType": "uint16",
          "name": "",
          "type": "uint16"
        }
      ],
      "name": "storeReleaseTime",
      "outputs": [
        {
          "internalType": "uint256",
          "name": "",
          "type": "uint256"
        }
      ],
      "stateMutability": "view",
      "type": "function",
      "constant": true
    },
    {
      "inputs": [],
      "name": "symbol",
      "outputs": [
        {
          "internalType": "string",
          "name": "",
          "type": "string"
        }
      ],
      "stateMutability": "view",
      "type": "function",
      "constant": true
    },
    {
      "inputs": [
        {
          "internalType": "uint256",
          "name": "index",
          "type": "uint256"
        }
      ],
      "name": "tokenByIndex",
      "outputs": [
        {
          "internalType": "uint256",
          "name": "",
          "type": "uint256"
        }
      ],
      "stateMutability": "view",
      "type": "function",
      "constant": true
    },
    {
      "inputs": [
        {
          "internalType": "address",
          "name": "owner",
          "type": "address"
        },
        {
          "internalType": "uint256",
          "name": "index",
          "type": "uint256"
        }
      ],
      "name": "tokenOfOwnerByIndex",
      "outputs": [
        {
          "internalType": "uint256",
          "name": "",
          "type": "uint256"
        }
      ],
      "stateMutability": "view",
      "type": "function",
      "constant": true
    },
    {
      "inputs": [
        {
          "internalType": "uint256",
          "name": "tokenId",
          "type": "uint256"
        }
      ],
      "name": "tokenURI",
      "outputs": [
        {
          "internalType": "string",
          "name": "",
          "type": "string"
        }
      ],
      "stateMutability": "view",
      "type": "function",
      "constant": true
    },
    {
      "inputs": [
        {
          "internalType": "uint256",
          "name": "",
          "type": "uint256"
        }
      ],
      "name": "tokensByRarity",
      "outputs": [
        {
          "internalType": "uint256",
          "name": "",
          "type": "uint256"
        }
      ],
      "stateMutability": "view",
      "type": "function",
      "constant": true
    },
    {
      "inputs": [],
      "name": "totalBoostersRewarded",
      "outputs": [
        {
          "internalType": "uint16",
          "name": "",
          "type": "uint16"
        }
      ],
      "stateMutability": "view",
      "type": "function",
      "constant": true
    },
    {
      "inputs": [],
      "name": "totalCardTypes",
      "outputs": [
        {
          "internalType": "uint16",
          "name": "",
          "type": "uint16"
        }
      ],
      "stateMutability": "view",
      "type": "function",
      "constant": true
    },
    {
      "inputs": [],
      "name": "totalSupply",
      "outputs": [
        {
          "internalType": "uint256",
          "name": "",
          "type": "uint256"
        }
      ],
      "stateMutability": "view",
      "type": "function",
      "constant": true
    },
    {
      "inputs": [
        {
          "internalType": "address",
          "name": "from",
          "type": "address"
        },
        {
          "internalType": "address",
          "name": "to",
          "type": "address"
        },
        {
          "internalType": "uint256",
          "name": "tokenId",
          "type": "uint256"
        }
      ],
      "name": "transferFrom",
      "outputs": [],
      "stateMutability": "nonpayable",
      "type": "function"
    },
    {
      "inputs": [
        {
          "internalType": "address",
          "name": "newOwner",
          "type": "address"
        }
      ],
      "name": "transferOwnership",
      "outputs": [],
      "stateMutability": "nonpayable",
      "type": "function"
    },
    {
      "inputs": [],
      "name": "weiCostOfBooster",
      "outputs": [
        {
          "internalType": "uint256",
          "name": "",
          "type": "uint256"
        }
      ],
      "stateMutability": "view",
      "type": "function",
      "constant": true
    },
    {
      "inputs": [],
      "name": "zoomGainedPerBoosterCredit",
      "outputs": [
        {
          "internalType": "uint256",
          "name": "",
          "type": "uint256"
        }
      ],
      "stateMutability": "view",
      "type": "function",
      "constant": true
    },
    {
      "inputs": [],
      "name": "zoomTokenContract",
      "outputs": [
        {
          "internalType": "address",
          "name": "",
          "type": "address"
        }
      ],
      "stateMutability": "view",
      "type": "function",
      "constant": true
    },
    {
      "inputs": [
        {
          "internalType": "uint16",
          "name": "_cardTypeId",
          "type": "uint16"
        }
      ],
      "name": "buyCard",
      "outputs": [],
      "stateMutability": "payable",
      "type": "function",
      "payable": true
    },
    {
      "inputs": [
        {
          "internalType": "uint16",
          "name": "_cardTypeId",
          "type": "uint16"
        }
      ],
      "name": "getFreeCard",
      "outputs": [],
      "stateMutability": "payable",
      "type": "function",
      "payable": true
    },
    {
      "inputs": [
        {
          "internalType": "uint256[]",
          "name": "_tokenIds",
          "type": "uint256[]"
        }
      ],
      "name": "sacrificeNFTs",
      "outputs": [],
      "stateMutability": "nonpayable",
      "type": "function"
    },
    {
      "inputs": [
        {
          "internalType": "address",
          "name": "_player",
          "type": "address"
        }
      ],
      "name": "getBonusBoosters",
      "outputs": [],
      "stateMutability": "nonpayable",
      "type": "function"
    },
    {
      "inputs": [
        {
          "internalType": "address",
          "name": "_mySponsor",
          "type": "address"
        }
      ],
      "name": "linkMySponsor",
      "outputs": [],
      "stateMutability": "nonpayable",
      "type": "function"
    },
    {
      "inputs": [
        {
          "internalType": "uint256",
          "name": "_amount",
          "type": "uint256"
        }
      ],
      "name": "buyBoosterCredits",
      "outputs": [
        {
          "internalType": "bool",
          "name": "",
          "type": "bool"
        }
      ],
      "stateMutability": "payable",
      "type": "function",
      "payable": true
    },
    {
      "inputs": [],
      "name": "buyBoosterAndMintNFT",
      "outputs": [
        {
          "internalType": "bool",
          "name": "",
          "type": "bool"
        }
      ],
      "stateMutability": "payable",
      "type": "function",
      "payable": true
    },
    {
      "inputs": [
        {
          "internalType": "uint256",
          "name": "zoomWager",
          "type": "uint256"
        }
      ],
      "name": "mintBoosterNFT",
      "outputs": [
        {
          "internalType": "bool",
          "name": "",
          "type": "bool"
        }
      ],
      "stateMutability": "nonpayable",
      "type": "function"
    },
    {
      "inputs": [
        {
          "internalType": "address",
          "name": "_winner",
          "type": "address"
        },
        {
          "internalType": "uint8",
          "name": "_amount",
          "type": "uint8"
        }
      ],
      "name": "awardBoosterCredits",
      "outputs": [
        {
          "internalType": "bool",
          "name": "",
          "type": "bool"
        }
      ],
      "stateMutability": "nonpayable",
      "type": "function"
    },
    {
      "inputs": [
        {
          "internalType": "bytes4",
          "name": "interfaceId",
          "type": "bytes4"
        }
      ],
      "name": "supportsInterface",
      "outputs": [
        {
          "internalType": "bool",
          "name": "",
          "type": "bool"
        }
      ],
      "stateMutability": "view",
      "type": "function",
      "constant": true
    },
    {
      "inputs": [
        {
          "internalType": "address",
          "name": "_player",
          "type": "address"
        }
      ],
      "name": "getTimeToDailyBonus",
      "outputs": [
        {
          "internalType": "uint256",
          "name": "timeStamp",
          "type": "uint256"
        }
      ],
      "stateMutability": "view",
      "type": "function",
      "constant": true
    },
    {
      "inputs": [],
      "name": "withdraw",
      "outputs": [
        {
          "internalType": "bool",
          "name": "",
          "type": "bool"
        }
      ],
      "stateMutability": "nonpayable",
      "type": "function"
    }
  ],
  "bytecode": "0x600e805461ffff191690556101606040526000608081815260a082905260c082905260e0829052610100829052610120829052610140919091526200004990601090600762000254565b506003601a556040805160e08101825260008082526020820181905291810191909152600160608201526101f46080820152610dac60a082015261271060c08201526200009b90601b9060076200029c565b50662386f26fc100006027556101f46028556029805463ffffffff191661c350179055348015620000cb57600080fd5b5060405162004f8438038062004f84833981016040819052620000ee9162000367565b60408051808201825260088152675a6f6f6d6269657360c01b6020808301918252835180850190945260078452665a6f6f6d62696560c81b9084015281519192916200013d91600091620002d3565b50805162000153906001906020840190620002d3565b505050620001706200016a620001fe60201b60201c565b62000202565b600a805460ff60a01b191690556001600160a01b0381166200019157600080fd5b60408051808201909152601b8082527f68747470733a2f2f7a6f6f6d626965732e776f726c642f6e66742f00000000006020909201918252620001d791602391620002d3565b50600b80546001600160a01b0319166001600160a01b0392909216919091179055620003d4565b3390565b600a80546001600160a01b038381166001600160a01b0319831681179093556040519116919082907f8be0079c531659141344cd1fd0a4f28419497f9722a3daafe3b4186f6b6457e090600090a35050565b82600781019282156200028a579160200282015b828111156200028a578251829060ff1690559160200191906001019062000268565b506200029892915062000350565b5090565b82600781019282156200028a579160200282015b828111156200028a578251829061ffff16905591602001919060010190620002b0565b828054620002e19062000397565b90600052602060002090601f0160209004810192826200030557600085556200028a565b82601f106200032057805160ff19168380011785556200028a565b828001600101855582156200028a579182015b828111156200028a57825182559160200191906001019062000333565b5b8082111562000298576000815560010162000351565b60006020828403121562000379578081fd5b81516001600160a01b038116811462000390578182fd5b9392505050565b600181811c90821680620003ac57607f821691505b60208210811415620003ce57634e487b7160e01b600052602260045260246000fd5b50919050565b614ba080620003e46000396000f3fe60806040526004361061036b5760003560e01c80637a93696a116101c6578063cc99b5cd116100f7578063ef73cc6611610095578063f6856f181161006f578063f6856f1814610ade578063f8ae951114610aff578063f902803514610b1f578063f93a0b3414610b3257600080fd5b8063ef73cc6614610a71578063f2fde38b14610a91578063f34d700714610ab157600080fd5b8063d7272116116100d1578063d7272116146109bd578063e618f832146109f5578063e985e9c514610a15578063ed6ae3b814610a5e57600080fd5b8063cc99b5cd1461094e578063d35590c21461096e578063d67f37d2146109a457600080fd5b8063ae4cf49211610164578063b7e357a61161013e578063b7e357a6146108e6578063b86709ca146108ee578063b88d4fde1461090e578063c87b56dd1461092e57600080fd5b8063ae4cf4921461084c578063aec29b8b1461085f578063afa615411461089a57600080fd5b8063912fdfcb116101a0578063912fdfcb146107d757806395d89b41146107f7578063993011d91461080c578063a22cb4651461082c57600080fd5b80637a93696a146107595780638adb7086146107795780638da5cb5b146107b957600080fd5b806323b872dd116102a05780634f6ccce71161023e5780636352211e116102185780636352211e146106d75780636501139a146106f757806370a0823114610724578063715018a61461074457600080fd5b80634f6ccce71461066b57806350a59fa01461068b5780635c975abb146106b857600080fd5b80633ccfd60b1161027a5780633ccfd60b146105f657806342842e0e1461060b57806342966c681461062b5780634d3e2e5e1461064b57600080fd5b806323b872dd1461057b578063265aa6211461059b5780632f745c59146105d657600080fd5b80630ef635091161030d57806316f73cde116102e757806316f73cde1461050357806318160ddd1461053057806318b51885146105455780631db18cf91461056557600080fd5b80630ef635091461049f57806312a1bf58146104cd57806314cec02f146104ed57600080fd5b8063073024481161034957806307302448146103eb578063081812fc1461040d578063095ea7b3146104455780630ad4c4f41461046557600080fd5b806301ffc9a71461037057806303666a85146103a557806306fdde03146103c9575b600080fd5b34801561037c57600080fd5b5061039061038b3660046144ca565b610b4d565b60405190151581526020015b60405180910390f35b3480156103b157600080fd5b506103bb60285481565b60405190815260200161039c565b3480156103d557600080fd5b506103de610b5e565b60405161039c9190614742565b3480156103f757600080fd5b5061040b61040636600461426d565b610bf0565b005b34801561041957600080fd5b5061042d61042836600461462e565b610d1d565b6040516001600160a01b03909116815260200161039c565b34801561045157600080fd5b5061040b6104603660046143d0565b610db2565b34801561047157600080fd5b5061048561048036600461462e565b610ec8565b6040805161ffff909316835260208301919091520161039c565b3480156104ab57600080fd5b50600e546104ba9061ffff1681565b60405161ffff909116815260200161039c565b3480156104d957600080fd5b5061040b6104e8366004614422565b610f0c565b3480156104f957600080fd5b506104ba61138881565b34801561050f57600080fd5b506103bb61051e366004614502565b600f6020526000908152604090205481565b34801561053c57600080fd5b506008546103bb565b34801561055157600080fd5b50600b5461042d906001600160a01b031681565b34801561057157600080fd5b506103bb60275481565b34801561058757600080fd5b5061040b6105963660046142b9565b611189565b3480156105a757600080fd5b506104856105b636600461462e565b6019602052600090815260409020805460019091015461ffff9091169082565b3480156105e257600080fd5b506103bb6105f13660046143d0565b6111bb565b34801561060257600080fd5b50610390611251565b34801561061757600080fd5b5061040b6106263660046142b9565b6112b2565b34801561063757600080fd5b5061040b61064636600461462e565b6112cd565b34801561065757600080fd5b506103bb61066636600461462e565b611347565b34801561067757600080fd5b506103bb61068636600461462e565b61135e565b34801561069757600080fd5b506106ab6106a636600461462e565b6113ff565b60405161039c9190614711565b3480156106c457600080fd5b50600a54600160a01b900460ff16610390565b3480156106e357600080fd5b5061042d6106f236600461462e565b611497565b34801561070357600080fd5b506103bb61071236600461426d565b60266020526000908152604090205481565b34801561073057600080fd5b506103bb61073f36600461426d565b61150e565b34801561075057600080fd5b5061040b611595565b34801561076557600080fd5b5061039061077436600461462e565b6115cb565b34801561078557600080fd5b5061079961079436600461462e565b611736565b60408051948552602085019390935291830152606082015260800161039c565b3480156107c557600080fd5b50600a546001600160a01b031661042d565b3480156107e357600080fd5b5061040b6107f236600461426d565b611812565b34801561080357600080fd5b506103de61197a565b34801561081857600080fd5b506103906108273660046143f9565b611989565b34801561083857600080fd5b5061040b61084736600461436d565b611b03565b61040b61085a366004614502565b611bc8565b34801561086b57600080fd5b5061039061087a3660046143a7565b601760209081526000928352604080842090915290825290205460ff1681565b3480156108a657600080fd5b50601154601254601354601454601554601654604080519687526020870195909552938501929092526060840152608083015260a082015260c00161039c565b610390611f53565b3480156108fa57600080fd5b5061040b610909366004614613565b612041565b34801561091a57600080fd5b5061040b6109293660046142f4565b612201565b34801561093a57600080fd5b506103de61094936600461462e565b612239565b34801561095a57600080fd5b5061040b61096936600461451c565b612314565b34801561097a57600080fd5b5061042d61098936600461426d565b6024602052600090815260409020546001600160a01b031681565b3480156109b057600080fd5b506103bb64174876e80081565b3480156109c957600080fd5b506109dd6109d8366004614502565b6127ff565b60405161039c9c9b9a999897969594939291906148f4565b348015610a0157600080fd5b506103bb610a1036600461462e565b61297e565b348015610a2157600080fd5b50610390610a30366004614287565b6001600160a01b03918216600090815260056020908152604080832093909416825291909152205460ff1690565b61040b610a6c366004614502565b61298e565b348015610a7d57600080fd5b506104ba610a8c36600461465e565b612d01565b348015610a9d57600080fd5b5061040b610aac36600461426d565b612d48565b348015610abd57600080fd5b506103bb610acc366004614502565b60186020526000908152604090205481565b348015610aea57600080fd5b506029546104ba9062010000900461ffff1681565b348015610b0b57600080fd5b506103bb610b1a36600461426d565b612de0565b610390610b2d36600461462e565b612e29565b348015610b3e57600080fd5b506029546104ba9061ffff1681565b6000610b5882612ef3565b92915050565b606060008054610b6d90614a66565b80601f0160208091040260200160405190810160405280929190818152602001828054610b9990614a66565b8015610be65780601f10610bbb57610100808354040283529160200191610be6565b820191906000526020600020905b815481529060010190602001808311610bc957829003601f168201915b5050505050905090565b610bf981612de0565b421015610c615760405162461bcd60e51b815260206004820152602b60248201527f43616e277420636c61696d206265666f72652074696d6520746f20636c61696d60448201526a206e65787420626f6e757360a81b60648201526084015b60405180910390fd5b610c6d426170806149d8565b6001600160a01b038216600090815260256020526040902055610c9133600a612f18565b610c9b600a612f9e565b6001600160a01b0381166000908152602660205260408120805460029290610cc49084906149d8565b90915550506001600160a01b038116600081815260266020908152604091829020548251938452908301527fdea0c85af515c9fffcca886846213edc28206526b243af2f064b6962032ce185910160405180910390a150565b6000818152600260205260408120546001600160a01b0316610d965760405162461bcd60e51b815260206004820152602c60248201527f4552433732313a20617070726f76656420717565727920666f72206e6f6e657860448201526b34b9ba32b73a103a37b5b2b760a11b6064820152608401610c58565b506000908152600460205260409020546001600160a01b031690565b6000610dbd82611497565b9050806001600160a01b0316836001600160a01b03161415610e2b5760405162461bcd60e51b815260206004820152602160248201527f4552433732313a20617070726f76616c20746f2063757272656e74206f776e656044820152603960f91b6064820152608401610c58565b336001600160a01b0382161480610e475750610e478133610a30565b610eb95760405162461bcd60e51b815260206004820152603860248201527f4552433732313a20617070726f76652063616c6c6572206973206e6f74206f7760448201527f6e6572206e6f7220617070726f76656420666f7220616c6c00000000000000006064820152608401610c58565b610ec38383613056565b505050565b60008181526002602052604081205481906001600160a01b0316610eeb57600080fd5b50506000908152601960205260409020805460019091015461ffff90911691565b61010081511115610f855760405162461bcd60e51b815260206004820152603b60248201527f4c697374206f6620746f6b656e7320746f20736163726966696365206d75737460448201527f206265206c657373207468616e2032353720617420612074696d6500000000006064820152608401610c58565b6000805b825181101561117157610fc2838281518110610fb557634e487b7160e01b600052603260045260246000fd5b60200260200101516112cd565b600060196000858481518110610fe857634e487b7160e01b600052603260045260246000fd5b602090810291909101810151825281810192909252604090810160009081205461ffff16808252600c909352206003015490915060019060109062010000900460ff166007811061104957634e487b7160e01b600052603260045260246000fd5b0160008282546110599190614a23565b909155505061ffff81166000908152600c602052604090206006015461107f90846149d8565b9250601960008584815181106110a557634e487b7160e01b600052603260045260246000fd5b60209081029190910181015182528101919091526040016000908120805461ffff19168155600101557f892362fdae2aa1fec0517f70658abd25f4ea8757b1b0675bce3c84a2425b80b83385848151811061111057634e487b7160e01b600052603260045260246000fd5b60209081029190910181015161ffff85166000818152600c84526040908190206006015481516001600160a01b0390961686529385019290925290830152606082015260800160405180910390a1508061116981614ac3565b915050610f89565b5061117c3382612f18565b61118581612f9e565b5050565b611194335b826130c4565b6111b05760405162461bcd60e51b8152600401610c58906148a3565b610ec38383836131bb565b60006111c68361150e565b82106112285760405162461bcd60e51b815260206004820152602b60248201527f455243373231456e756d657261626c653a206f776e657220696e646578206f7560448201526a74206f6620626f756e647360a81b6064820152608401610c58565b506001600160a01b03919091166000908152600660209081526040808320938352929052205490565b600a546000906001600160a01b0316331461127e5760405162461bcd60e51b8152600401610c589061486e565b60405133904780156108fc02916000818181858888f193505050501580156112aa573d6000803e3d6000fd5b506001905090565b610ec383838360405180602001604052806000815250612201565b6112d63361118e565b61133b5760405162461bcd60e51b815260206004820152603060248201527f4552433732314275726e61626c653a2063616c6c6572206973206e6f74206f7760448201526f1b995c881b9bdc88185c1c1c9bdd995960821b6064820152608401610c58565b61134481613366565b50565b6010816007811061135757600080fd5b0154905081565b600061136960085490565b82106113cc5760405162461bcd60e51b815260206004820152602c60248201527f455243373231456e756d657261626c653a20676c6f62616c20696e646578206f60448201526b7574206f6620626f756e647360a01b6064820152608401610c58565b600882815481106113ed57634e487b7160e01b600052603260045260246000fd5b90600052602060002001549050919050565b611407614105565b81611441576040805160e081019182905290601b9060079082845b8154815260200190600101908083116114225750505050509050919050565b60008060008061145086611736565b6040805160e081018252600080825260208201819052918101919091526060810191909152608081019190915260a081019190915260c08101919091529695505050505050565b6000818152600260205260408120546001600160a01b031680610b585760405162461bcd60e51b815260206004820152602960248201527f4552433732313a206f776e657220717565727920666f72206e6f6e657869737460448201526832b73a103a37b5b2b760b91b6064820152608401610c58565b60006001600160a01b0382166115795760405162461bcd60e51b815260206004820152602a60248201527f4552433732313a2062616c616e636520717565727920666f7220746865207a65604482015269726f206164647265737360b01b6064820152608401610c58565b506001600160a01b031660009081526003602052604090205490565b600a546001600160a01b031633146115bf5760405162461bcd60e51b8152600401610c589061486e565b6115c9600061340d565b565b336000908152602660205260408120546116275760405162461bcd60e51b815260206004820152601860248201527f4e6f20426f6f737465722063726564697473206f776e656400000000000000006044820152606401610c58565b8115806116465750620f4240821015801561164657506301312d008211155b6116a05760405162461bcd60e51b815260206004820152602560248201527f5761676572206d7573742062652030206f72206265747765656e207468616e20604482015264312d32304d60d81b6064820152608401610c58565b3360009081526026602052604081208054600192906116c0908490614a23565b90915550600090506116d18361345f565b905060015b80156116f3576116e5826136cc565b156116ee575060005b6116d6565b6040805160ff84168152905133917f9110cd00ebf5075b22eead1dbb6c4f4c5b7bd329bc646333c004dfb9e8c21f0b919081900360200190a25060019392505050565b600080808061174d670de0b6b3a7640000866149f0565b945061175b614e20866149f0565b601e5461176891906149d8565b905061177661157c866149f0565b601f5461178390836149d8565b61178d91906149d8565b915061179b611f40866149f0565b6020546117a890846149d8565b6117b291906149d8565b92506117c0836127106149d8565b6040805183815260208101859052908101859052606081018290529094507f898559e312cc80d45bb534f3345ad1ef7addb23ca6347b06e71ae5ca8b52eaa49060800160405180910390a19193509193565b6001600160a01b0381166118685760405162461bcd60e51b815260206004820152601b60248201527f53656e6420612076616c69642073706f6e736f722077616c6c657400000000006044820152606401610c58565b336000908152602460205260409020546001600160a01b0316156118d85760405162461bcd60e51b815260206004820152602160248201527f596f75206861766520616c7265616479206c696e6b656420612073706f6e736f6044820152603960f91b6064820152608401610c58565b336001600160a01b03821614156119315760405162461bcd60e51b815260206004820152601b60248201527f596f752063616e6e6f742073706f6e736f7220796f757273656c6600000000006044820152606401610c58565b33600090815260246020526040902080546001600160a01b0319166001600160a01b03831617905560015b80156111855761196c60026136cc565b15611975575060005b61195c565b606060018054610b6d90614a66565b600a546000906001600160a01b031633146119b65760405162461bcd60e51b8152600401610c589061486e565b60295461ffff808216916119d59160ff861691620100009004166149bb565b61ffff161115611a3d5760405162461bcd60e51b815260206004820152602d60248201527f52656163686564206d61782e206e756d626572206f6620426f6f73746572206360448201526c7265646974207265776172647360981b6064820152608401610c58565b8160ff16602960028282829054906101000a900461ffff16611a5f91906149bb565b92506101000a81548161ffff021916908361ffff1602179055508160ff1660266000856001600160a01b03166001600160a01b031681526020019081526020016000206000828254611ab191906149d8565b9091555050604080516001600160a01b038516815260ff841660208201527f0db7c2749c43f1a3f16904833bf2cf21b6f6e675613def2bd07ec6b2de65bf8b910160405180910390a150600192915050565b6001600160a01b038216331415611b5c5760405162461bcd60e51b815260206004820152601960248201527f4552433732313a20617070726f766520746f2063616c6c6572000000000000006044820152606401610c58565b3360008181526005602090815260408083206001600160a01b03871680855290835292819020805460ff191686151590811790915590519081529192917f17307eab39ab6107e8899845ad3d59bd9653f200f220920489ca2b5937696c31910160405180910390a35050565b61ffff8082166000908152600c602052604090205416611c2a5760405162461bcd60e51b815260206004820152601b60248201527f43617264207479706520494420646f6573206e6f7420657869737400000000006044820152606401610c58565b61ffff81166000908152600c6020526040902060030154610100900460ff1615611c665760405162461bcd60e51b8152600401610c58906147ea565b61ffff81166000908152600f6020526040902054421015611cc95760405162461bcd60e51b815260206004820152601b60248201527f43617264206e6f742072656c65617365642066726f6d2073686f7000000000006044820152606401610c58565b61ffff8116600090815260186020526040902054611ce89060016149d8565b61ffff8083166000908152600c602052604090206003015463010000009004161015611d265760405162461bcd60e51b8152600401610c58906147a7565b33600090815260176020908152604080832061ffff8516845290915290205460ff1615611d655760405162461bcd60e51b8152600401610c589061482d565b61ffff81166000908152600c6020526040902060040154341015611de35760405162461bcd60e51b815260206004820152602f60248201527f596f752068617665206e6f74207061696420656e6f756768204d4f565220746f60448201526e206d696e742074686973207479706560881b6064820152608401610c58565b600b546000906001600160a01b03166370a08231336040516001600160e01b031960e084901b1681526001600160a01b03909116600482015260240160206040518083038186803b158015611e3757600080fd5b505afa158015611e4b573d6000803e3d6000fd5b505050506040513d601f19601f82011682018060405250810190611e6f9190614646565b61ffff83166000908152600c60205260409020600701549091508110801590611ead575061ffff82166000908152600c602052604090206004015434145b80611ed8575061ffff82166000908152600c6020526040902060040154611ed5906003614a04565b34145b611f4a5760405162461bcd60e51b815260206004820152603d60248201527f596f7520646f206e6f74206861766520746865207265717569726564205a6f6f60448201527f6d2062616c616e6365204f72204d4f5652202b6571756976616c656e740000006064820152608401610c58565b611185826137ca565b60006027543414611fba5760405162461bcd60e51b815260206004820152602b60248201527f436f737420746f2062757920616e64206d696e74206120426f6f73746572204e60448201526a465420697320302e30303160a81b6064820152608401610c58565b611fc633602854612f18565b611fd1602854612f9e565b6000611fdd600061345f565b905060015b8015611fff57611ff1826136cc565b15611ffa575060005b611fe2565b6040805160ff84168152905133917f9110cd00ebf5075b22eead1dbb6c4f4c5b7bd329bc646333c004dfb9e8c21f0b919081900360200190a260019250505090565b600a546001600160a01b0316331461206b5760405162461bcd60e51b8152600401610c589061486e565b61ffff8083166000818152600c6020526040902054909116146120db5760405162461bcd60e51b815260206004820152602260248201527f546869732063617264547970654964206973206e6f7420646566696e65642079604482015261195d60f21b6064820152608401610c58565b61088e8111156121535760405162461bcd60e51b815260206004820152603960248201527f686f75727346726f6d4e6f77206d757374206265206120706f7369746976652060448201527f6e756d62657220616e64206c657373207468616e2032313930000000000000006064820152608401610c58565b61ffff82166000908152600f60205260409020544211156121d05760405162461bcd60e51b815260206004820152603160248201527f43616e206f6e6c79206368616e67652072656c656173652074696d6573206f6e60448201527020556e72656c656173656420636172647360781b6064820152608401610c58565b6121dc81610e10614a04565b6121e690426149d8565b61ffff9092166000908152600f602052604090209190915550565b61220b33836130c4565b6122275760405162461bcd60e51b8152600401610c58906148a3565b61223384848484613968565b50505050565b6000818152600260205260409020546060906001600160a01b03166122b85760405162461bcd60e51b815260206004820152602f60248201527f4552433732314d657461646174613a2055524920717565727920666f72206e6f60448201526e3732bc34b9ba32b73a103a37b5b2b760891b6064820152608401610c58565b60006122c261399b565b905060008151116122e2576040518060200160405280600081525061230d565b806122ec846139aa565b6040516020016122fd9291906146a5565b6040516020818303038152906040525b9392505050565b600a546001600160a01b0316331461233e5760405162461bcd60e51b8152600401610c589061486e565b600e5461138861ffff90911611156123a35760405162461bcd60e51b815260206004820152602260248201527f4d6178696d756d206f6620353030302063617264205479706573207265616368604482015261195960f21b6064820152608401610c58565b61ffff808d166000908152600c602052604090205416156124235760405162461bcd60e51b815260206004820152603460248201527f4e6f7420616c6c6f77656420746f2075706461746520616e206578697374696e604482015273339031b0b9322a3cb832903232b334b734ba37b760611b6064820152608401610c58565b60ff8816158015612438575060018661ffff16105b156124945760405162461bcd60e51b815260206004820152602660248201527f496e2073746f7265207479706573206d757374206265206c696d6974656420656044820152653234ba34b7b760d11b6064820152608401610c58565b60008860ff161180156124a75750600085115b156124fe5760405162461bcd60e51b815260206004820152602160248201527f426f6f737465722f426f6e7573206d6179204e4f542068617665206120636f736044820152601d60fa1b6064820152608401610c58565b61ffff8c166000818152600c60209081526040909120805461ffff191690921782558c5161253292600101918e0190614123565b5061ffff8c166000908152600c602090815260409091208b5161255d926002909201918d0190614123565b5088600c60008e61ffff1661ffff16815260200190815260200160002060030160006101000a81548160ff021916908360ff16021790555087600c60008e61ffff1661ffff16815260200190815260200160002060030160016101000a81548160ff021916908360ff16021790555086600c60008e61ffff1661ffff16815260200190815260200160002060030160026101000a81548160ff021916908360ff16021790555085600c60008e61ffff1661ffff16815260200190815260200160002060030160036101000a81548161ffff021916908361ffff16021790555084600c60008e61ffff1661ffff1681526020019081526020016000206004018190555083600c60008e61ffff1661ffff1681526020019081526020016000206005018190555082600c60008e61ffff1661ffff1681526020019081526020016000206006018190555081600c60008e61ffff1661ffff1681526020019081526020016000206007018190555080600c60008e61ffff1661ffff16815260200190815260200160002060080160006101000a81548160ff021916908360ff160217905550600e600081819054906101000a900461ffff168092919061271f90614aa1565b91906101000a81548161ffff021916908361ffff1602179055505060008860ff1611156127c857600d60008860ff1660ff1681526020019081526020016000208c90806001815401808255809150506001900390600052602060002090601091828204019190066002029091909190916101000a81548161ffff021916908361ffff16021790555042600f60008e61ffff1661ffff168152602001908152602001600020819055505b60ff88166127f1576127dc426102586149d8565b61ffff8d166000908152600f60205260409020555b505050505050505050505050565b600c602052600090815260409020805460018201805461ffff909216929161282690614a66565b80601f016020809104026020016040519081016040528092919081815260200182805461285290614a66565b801561289f5780601f106128745761010080835404028352916020019161289f565b820191906000526020600020905b81548152906001019060200180831161288257829003601f168201915b5050505050908060020180546128b490614a66565b80601f01602080910402602001604051908101604052809291908181526020018280546128e090614a66565b801561292d5780601f106129025761010080835404028352916020019161292d565b820191906000526020600020905b81548152906001019060200180831161291057829003601f168201915b50505060038401546004850154600586015460068701546007880154600890980154969760ff808616986101008704821698506201000087048216975061ffff63010000009097049690961695168c565b601b816007811061135757600080fd5b61ffff8082166000908152600c6020526040902054166129f05760405162461bcd60e51b815260206004820152601b60248201527f43617264207479706520494420646f6573206e6f7420657869737400000000006044820152606401610c58565b61ffff81166000908152600c6020526040902060030154610100900460ff1615612a2c5760405162461bcd60e51b8152600401610c58906147ea565b61ffff81166000908152600f6020526040902054421015612a8f5760405162461bcd60e51b815260206004820152601b60248201527f43617264206e6f742072656c65617365642066726f6d2073686f7000000000006044820152606401610c58565b61ffff8116600090815260186020526040902054612aae9060016149d8565b61ffff8083166000908152600c602052604090206003015463010000009004161015612aec5760405162461bcd60e51b8152600401610c58906147a7565b33600090815260176020908152604080832061ffff8516845290915290205460ff1615612b2b5760405162461bcd60e51b8152600401610c589061482d565b61ffff81166000908152600c602052604090206004015415612b9e5760405162461bcd60e51b815260206004820152602660248201527f596f752061726520617474656d7074696e6720746f206d696e7420612070616960448201526564207479706560d01b6064820152608401610c58565b600b546000906001600160a01b03166370a08231336040516001600160e01b031960e084901b1681526001600160a01b03909116600482015260240160206040518083038186803b158015612bf257600080fd5b505afa158015612c06573d6000803e3d6000fd5b505050506040513d601f19601f82011682018060405250810190612c2a9190614646565b61ffff83166000908152600c602052604081206007015491925090612c5090600a614a04565b612c5f9064174876e800614a04565b61ffff84166000908152600c602052604090206007015490915082101580612c8657508034145b612cf85760405162461bcd60e51b815260206004820152603c60248201527f596f7520646f206e6f74206861766520746865207265717569726564205a6f6f60448201527f6d2062616c616e6365204f72204d4f5652206571756976616c656e74000000006064820152608401610c58565b610ec3836137ca565b600d6020528160005260406000208181548110612d1d57600080fd5b9060005260206000209060109182820401919006600202915091509054906101000a900461ffff1681565b600a546001600160a01b03163314612d725760405162461bcd60e51b8152600401610c589061486e565b6001600160a01b038116612dd75760405162461bcd60e51b815260206004820152602660248201527f4f776e61626c653a206e6577206f776e657220697320746865207a65726f206160448201526564647265737360d01b6064820152608401610c58565b6113448161340d565b6001600160a01b038116600090815260256020526040812054612e0857610b58600242614a23565b506001600160a01b031660009081526025602052604090205490565b919050565b600081602754612e399190614a04565b3414612e995760405162461bcd60e51b815260206004820152602960248201527f436f737420746f20627579203120426f6f73746572204e46542063726564697460448201526820697320302e30303160b81b6064820152608401610c58565b3360009081526026602052604081208054849290612eb89084906149d8565b90915550612ed590503383602854612ed09190614a04565b612f18565b612eeb82602854612ee69190614a04565b612f9e565b506001919050565b60006001600160e01b0319821663780e9d6360e01b1480610b585750610b5882613ac4565b600b546001600160a01b03166321af688983612f3c84670de0b6b3a7640000614a04565b6040516001600160e01b031960e085901b1681526001600160a01b0390921660048301526024820152604401600060405180830381600087803b158015612f8257600080fd5b505af1158015612f96573d6000803e3d6000fd5b505050505050565b336000908152602460205260409020546001600160a01b031615611344576000612fc96005836149f0565b905080612fd4575060015b33600090815260246020526040902054612ff7906001600160a01b031682612f18565b336000818152602460209081526040918290205482516001600160a01b0391909116815290810192909252818101839052517e3da85d6058444eca57e3b88be14c734f4f239affe28b7629966e318de2a90e9181900360600190a15050565b600081815260046020526040902080546001600160a01b0319166001600160a01b038416908117909155819061308b82611497565b6001600160a01b03167f8c5be1e5ebec7d5bd14f71427d1e84f3dd0314c0f7b2291e5b200ac8c7c3b92560405160405180910390a45050565b6000818152600260205260408120546001600160a01b031661313d5760405162461bcd60e51b815260206004820152602c60248201527f4552433732313a206f70657261746f7220717565727920666f72206e6f6e657860448201526b34b9ba32b73a103a37b5b2b760a11b6064820152608401610c58565b600061314883611497565b9050806001600160a01b0316846001600160a01b031614806131835750836001600160a01b031661317884610d1d565b6001600160a01b0316145b806131b357506001600160a01b0380821660009081526005602090815260408083209388168352929052205460ff165b949350505050565b826001600160a01b03166131ce82611497565b6001600160a01b0316146132365760405162461bcd60e51b815260206004820152602960248201527f4552433732313a207472616e73666572206f6620746f6b656e2074686174206960448201526839903737ba1037bbb760b91b6064820152608401610c58565b6001600160a01b0382166132985760405162461bcd60e51b8152602060048201526024808201527f4552433732313a207472616e7366657220746f20746865207a65726f206164646044820152637265737360e01b6064820152608401610c58565b6132a3838383613b14565b6132ae600082613056565b6001600160a01b03831660009081526003602052604081208054600192906132d7908490614a23565b90915550506001600160a01b03821660009081526003602052604081208054600192906133059084906149d8565b909155505060008181526002602052604080822080546001600160a01b0319166001600160a01b0386811691821790925591518493918716917fddf252ad1be2c89b69c2b068fc378daa952ba7f163c4a11628f55a4df523b3ef91a4505050565b600061337182611497565b905061337f81600084613b14565b61338a600083613056565b6001600160a01b03811660009081526003602052604081208054600192906133b3908490614a23565b909155505060008281526002602052604080822080546001600160a01b0319169055518391906001600160a01b038416907fddf252ad1be2c89b69c2b068fc378daa952ba7f163c4a11628f55a4df523b3ef908390a45050565b600a80546001600160a01b038381166001600160a01b0319831681179093556040519116919082907f8be0079c531659141344cd1fd0a4f28419497f9722a3daafe3b4186f6b6457e090600090a35050565b60006301312d008211156134cd5760405162461bcd60e51b815260206004820152602f60248201527f596f75206d757374207761676572206c657373207468616e207468652075707060448201526e6572206c696d6974206f662032304d60881b6064820152608401610c58565b6134df82670de0b6b3a7640000614a04565b600b549092506000906001600160a01b03166370a08231336040516001600160e01b031960e084901b1681526001600160a01b03909116600482015260240160206040518083038186803b15801561353657600080fd5b505afa15801561354a573d6000803e3d6000fd5b505050506040513d601f19601f8201168201806040525081019061356e9190614646565b9050828110156135d35760405162461bcd60e51b815260206004820152602a60248201527f596f7520646f204e6f74206861766520656e6f756768205a4f4f4d20666f72206044820152693a3434b9903bb0b3b2b960b11b6064820152608401610c58565b821561364c57600b546001600160a01b03166336ec0dd6336040516001600160e01b031960e084901b1681526001600160a01b03909116600482015260248101869052604401600060405180830381600087803b15801561363357600080fd5b505af1158015613647573d6000803e3d6000fd5b505050505b6000613659612710613b6c565b90506000613666856113ff565b905060025b60078160ff1610156136c057818160ff166007811061369a57634e487b7160e01b600052603260045260246000fd5b602002015183116136ae5795945050505050565b806136b881614ade565b91505061366b565b50600695945050505050565b60ff81166000908152600d602052604081205481906136ea90613b6c565b60ff84166000908152600d60205260408120805492935090918390811061372157634e487b7160e01b600052603260045260246000fd5b60009182526020808320601083040154600f9092166002026101000a90910461ffff908116808452600c9092526040909220600301549092506301000000900416158015906137a8575061ffff8082166000908152600c60209081526040808320600301546018909252909120546301000000909104909116906137a69060016149d8565b115b156137b7575060009392505050565b6137c0816137ca565b5060019392505050565b33600081815260176020908152604080832061ffff861684528252808320805460ff19166001179055600c9091529020600501546138089190612f18565b61ffff81166000908152600c602052604090206005015461382890612f9e565b61ffff8116600090815260186020526040812080546001929061384c9084906149d8565b9091555050602280546001019055600061386560225490565b90506138713382613beb565b60408051808201825261ffff84811680835260008181526018602090815285822054818601908152878352601982528683208651815461ffff1916961695909517855551600194850155918152600c909152929092206003015490919060109062010000900460ff16600781106138f857634e487b7160e01b600052603260045260246000fd5b01600082825461390891906149d8565b9091555050805161ffff16336001600160a01b03167f36e996ba214404b0a557ef87433cf92f99d6f4e07c2ca5b7cf72a95d7ac7f09f84846020015160405161395b929190918252602082015260400190565b60405180910390a3505050565b6139738484846131bb565b61397f84848484613c05565b6122335760405162461bcd60e51b8152600401610c5890614755565b606060238054610b6d90614a66565b6060816139ce5750506040805180820190915260018152600360fc1b602082015290565b8160005b81156139f857806139e281614ac3565b91506139f19050600a836149f0565b91506139d2565b60008167ffffffffffffffff811115613a2157634e487b7160e01b600052604160045260246000fd5b6040519080825280601f01601f191660200182016040528015613a4b576020820181803683370190505b5090505b84156131b357613a60600183614a23565b9150613a6d600a86614afe565b613a789060306149d8565b60f81b818381518110613a9b57634e487b7160e01b600052603260045260246000fd5b60200101906001600160f81b031916908160001a905350613abd600a866149f0565b9450613a4f565b60006001600160e01b031982166380ac58cd60e01b1480613af557506001600160e01b03198216635b5e139f60e01b145b80610b5857506301ffc9a760e01b6001600160e01b0319831614610b58565b600a54600160a01b900460ff1615613b615760405162461bcd60e51b815260206004820152601060248201526f14185d5cd8589b194e881c185d5cd95960821b6044820152606401610c58565b610ec3838383613d12565b600080824233601a54604051602001613baa9392919092835260609190911b6bffffffffffffffffffffffff19166020830152603482015260540190565b6040516020818303038152906040528051906020012060001c613bcd9190614afe565b601a80549192506000613bdf83614ac3565b90915550909392505050565b611185828260405180602001604052806000815250613dca565b60006001600160a01b0384163b15613d0757604051630a85bd0160e11b81526001600160a01b0385169063150b7a0290613c499033908990889088906004016146d4565b602060405180830381600087803b158015613c6357600080fd5b505af1925050508015613c93575060408051601f3d908101601f19168201909252613c90918101906144e6565b60015b613ced573d808015613cc1576040519150601f19603f3d011682016040523d82523d6000602084013e613cc6565b606091505b508051613ce55760405162461bcd60e51b8152600401610c5890614755565b805181602001fd5b6001600160e01b031916630a85bd0160e11b1490506131b3565b506001949350505050565b6001600160a01b038316613d6d57613d6881600880546000838152600960205260408120829055600182018355919091527ff3f7a9fe364faab93b216da50a3214154f22a0a2b415b23a84c8169e8b636ee30155565b613d90565b816001600160a01b0316836001600160a01b031614613d9057613d908382613dfd565b6001600160a01b038216613da757610ec381613e9a565b826001600160a01b0316826001600160a01b031614610ec357610ec38282613f73565b613dd48383613fb7565b613de16000848484613c05565b610ec35760405162461bcd60e51b8152600401610c5890614755565b60006001613e0a8461150e565b613e149190614a23565b600083815260076020526040902054909150808214613e67576001600160a01b03841660009081526006602090815260408083208584528252808320548484528184208190558352600790915290208190555b5060009182526007602090815260408084208490556001600160a01b039094168352600681528383209183525290812055565b600854600090613eac90600190614a23565b60008381526009602052604081205460088054939450909284908110613ee257634e487b7160e01b600052603260045260246000fd5b906000526020600020015490508060088381548110613f1157634e487b7160e01b600052603260045260246000fd5b6000918252602080832090910192909255828152600990915260408082208490558582528120556008805480613f5757634e487b7160e01b600052603160045260246000fd5b6001900381819060005260206000200160009055905550505050565b6000613f7e8361150e565b6001600160a01b039093166000908152600660209081526040808320868452825280832085905593825260079052919091209190915550565b6001600160a01b03821661400d5760405162461bcd60e51b815260206004820181905260248201527f4552433732313a206d696e7420746f20746865207a65726f20616464726573736044820152606401610c58565b6000818152600260205260409020546001600160a01b0316156140725760405162461bcd60e51b815260206004820152601c60248201527f4552433732313a20746f6b656e20616c7265616479206d696e746564000000006044820152606401610c58565b61407e60008383613b14565b6001600160a01b03821660009081526003602052604081208054600192906140a79084906149d8565b909155505060008181526002602052604080822080546001600160a01b0319166001600160a01b03861690811790915590518392907fddf252ad1be2c89b69c2b068fc378daa952ba7f163c4a11628f55a4df523b3ef908290a45050565b6040518060e001604052806007906020820280368337509192915050565b82805461412f90614a66565b90600052602060002090601f0160209004810192826141515760008555614197565b82601f1061416a57805160ff1916838001178555614197565b82800160010185558215614197579182015b8281111561419757825182559160200191906001019061417c565b506141a39291506141a7565b5090565b5b808211156141a357600081556001016141a8565b600067ffffffffffffffff8311156141d6576141d6614b3e565b6141e9601f8401601f191660200161498a565b90508281528383830111156141fd57600080fd5b828260208301376000602084830101529392505050565b80356001600160a01b0381168114612e2457600080fd5b600082601f83011261423b578081fd5b61230d838335602085016141bc565b803561ffff81168114612e2457600080fd5b803560ff81168114612e2457600080fd5b60006020828403121561427e578081fd5b61230d82614214565b60008060408385031215614299578081fd5b6142a283614214565b91506142b060208401614214565b90509250929050565b6000806000606084860312156142cd578081fd5b6142d684614214565b92506142e460208501614214565b9150604084013590509250925092565b60008060008060808587031215614309578081fd5b61431285614214565b935061432060208601614214565b925060408501359150606085013567ffffffffffffffff811115614342578182fd5b8501601f81018713614352578182fd5b614361878235602084016141bc565b91505092959194509250565b6000806040838503121561437f578182fd5b61438883614214565b91506020830135801515811461439c578182fd5b809150509250929050565b600080604083850312156143b9578182fd5b6143c283614214565b91506142b06020840161424a565b600080604083850312156143e2578182fd5b6143eb83614214565b946020939093013593505050565b6000806040838503121561440b578182fd5b61441483614214565b91506142b06020840161425c565b60006020808385031215614434578182fd5b823567ffffffffffffffff8082111561444b578384fd5b818501915085601f83011261445e578384fd5b81358181111561447057614470614b3e565b8060051b915061448184830161498a565b8181528481019084860184860187018a101561449b578788fd5b8795505b838610156144bd57803583526001959095019491860191860161449f565b5098975050505050505050565b6000602082840312156144db578081fd5b813561230d81614b54565b6000602082840312156144f7578081fd5b815161230d81614b54565b600060208284031215614513578081fd5b61230d8261424a565b6000806000806000806000806000806000806101808d8f03121561453e57898afd5b6145478d61424a565b9b5067ffffffffffffffff60208e0135111561456157898afd5b6145718e60208f01358f0161422b565b9a5067ffffffffffffffff60408e0135111561458b57898afd5b61459b8e60408f01358f0161422b565b99506145a960608e0161425c565b98506145b760808e0161425c565b97506145c560a08e0161425c565b96506145d360c08e0161424a565b955060e08d013594506101008d013593506101208d013592506101408d013591506146016101608e0161425c565b90509295989b509295989b509295989b565b60008060408385031215614625578182fd5b6143eb8361424a565b60006020828403121561463f578081fd5b5035919050565b600060208284031215614657578081fd5b5051919050565b60008060408385031215614670578182fd5b6143eb8361425c565b60008151808452614691816020860160208601614a3a565b601f01601f19169290920160200192915050565b600083516146b7818460208801614a3a565b8351908301906146cb818360208801614a3a565b01949350505050565b6001600160a01b038581168252841660208201526040810183905260806060820181905260009061470790830184614679565b9695505050505050565b60e08101818360005b600781101561473957815183526020928301929091019060010161471a565b50505092915050565b60208152600061230d6020830184614679565b60208082526032908201527f4552433732313a207472616e7366657220746f206e6f6e20455243373231526560408201527131b2b4bb32b91034b6b83632b6b2b73a32b960711b606082015260800190565b60208082526023908201527f416c6c206f662074686573652063617264732068617665206265656e206d696e6040820152621d195960ea1b606082015260800190565b60208082526023908201527f4f6e6c792063617264732066726f6d2073746f72652063616e206265206d696e6040820152621d195960ea1b606082015260800190565b60208082526021908201527f596f75206861766520616c7265616479206d696e7465642074686973207479706040820152606560f81b606082015260800190565b6020808252818101527f4f776e61626c653a2063616c6c6572206973206e6f7420746865206f776e6572604082015260600190565b60208082526031908201527f4552433732313a207472616e736665722063616c6c6572206973206e6f74206f6040820152701ddb995c881b9bdc88185c1c1c9bdd9959607a1b606082015260800190565b600061018061ffff8f1683528060208401526149128184018f614679565b90508281036040840152614926818e614679565b91505060ff8b16606083015260ff8a16608083015260ff891660a083015261ffff881660c08301528660e083015285610100830152846101208301528361014083015261497961016083018460ff169052565b9d9c50505050505050505050505050565b604051601f8201601f1916810167ffffffffffffffff811182821017156149b3576149b3614b3e565b604052919050565b600061ffff8083168185168083038211156146cb576146cb614b12565b600082198211156149eb576149eb614b12565b500190565b6000826149ff576149ff614b28565b500490565b6000816000190483118215151615614a1e57614a1e614b12565b500290565b600082821015614a3557614a35614b12565b500390565b60005b83811015614a55578181015183820152602001614a3d565b838111156122335750506000910152565b600181811c90821680614a7a57607f821691505b60208210811415614a9b57634e487b7160e01b600052602260045260246000fd5b50919050565b600061ffff80831681811415614ab957614ab9614b12565b6001019392505050565b6000600019821415614ad757614ad7614b12565b5060010190565b600060ff821660ff811415614af557614af5614b12565b60010192915050565b600082614b0d57614b0d614b28565b500690565b634e487b7160e01b600052601160045260246000fd5b634e487b7160e01b600052601260045260246000fd5b634e487b7160e01b600052604160045260246000fd5b6001600160e01b03198116811461134457600080fdfea2646970667358221220a57efd210606c72836f6afc9d124b4b31d5e23ff171f6b1907911186d9250fb164736f6c63430008040033",
  "immutableReferences": {},
  "source": "// SPDX-License-Identifier: MIT\npragma solidity ^0.8.4;\n\nimport \"./ZoombiesUniverse.sol\";\nimport \"@openzeppelin/contracts/token/ERC721/ERC721.sol\";\nimport \"@openzeppelin/contracts/token/ERC721/extensions/ERC721Burnable.sol\";\nimport \"@openzeppelin/contracts/utils/Counters.sol\";\n\n\ncontract Zoombies is ERC721, ERC721Burnable, ZoombiesUniverse {\n    using Counters for Counters.Counter;\n\n    Counters.Counter private _tokenIdCounter;\n    string private _baseTokenURI;\n\n    //Tracking affiliate sponsors\n    mapping(address => address) public sponsors; // 1 sponsor have many affiliates, but only 1 sponsor, returns sponsor\n\n    //Track the timestamps for users to get their daily pull\n    mapping(address => uint256) private timeToCardsPull; //address to timestamp\n\n    //Tracking booster pack count ownership. These are NOT tokens, Player can mint a random NFT\n    mapping (address => uint256) public boosterCreditsOwned;\n\n    uint public weiCostOfBooster = 10000000000000000;\n    uint256 public zoomGainedPerBoosterCredit = 500;\n\n    uint16 public maxBoostersRewards = 50000;\n    uint16 public totalBoostersRewarded = 0;\n\n    //Event Logs\n    event LogCardTypeLoaded(uint32 indexed cardTypeId, string cardName, uint editionTotal);\n    event LogCardMinted(address indexed buyer, uint tokenId, uint32 indexed cardTypeId, uint editionNumber);\n    event LogPackOpened(address indexed buyer, uint8 rarity);\n    event LogSponsorLinked(address sponsor, address affiliate);\n    event LogSponsorReward(address sponsor, address affiliate, uint zoomReward);\n    event LogDailyReward(address player, uint newBoosterBalance);\n    event LogRewardBoosters(address winner, uint boostersAwarded);\n    event LogSacrificeNFT(address owner, uint256 tokenId, uint16 cardTypeId, uint256 zoomGained);\n\n    constructor(address _zoomTokenContract)\n    ERC721(\"Zoombies\", \"Zoombie\") {\n        require(_zoomTokenContract != address(0x0));\n        _baseTokenURI = \"https://zoombies.world/nft/\";\n        zoomTokenContract = _zoomTokenContract;\n    }\n\n    function buyCard(uint16 _cardTypeId) external payable {\n        require(allCardTypes[_cardTypeId].cardTypeId != 0, \"Card type ID does not exist\");\n        require(allCardTypes[_cardTypeId].notStoreOrBonus == 0, \"Only cards from store can be minted\");\n        require(block.timestamp >= storeReleaseTime[_cardTypeId], \"Card not released from shop\");\n        require(allCardTypes[_cardTypeId].totalAvailable >= (cardTypeToEdition[_cardTypeId]+1),\n        \"All of these cards have been minted\");\n        require(cardTypesOwned[_msgSender()][_cardTypeId] == false, \"You have already minted this type\");\n        require(msg.value >= allCardTypes[_cardTypeId].weiCost, \"You have not paid enough MOVR to mint this type\");\n        uint zoom = ZoomToken(zoomTokenContract).balanceOf(_msgSender());\n\n        require(zoom >= allCardTypes[_cardTypeId].unlockZoom &&\n        msg.value == allCardTypes[_cardTypeId].weiCost || msg.value == allCardTypes[_cardTypeId].weiCost*3,\n        \"You do not have the required Zoom balance Or MOVR +equivalent\");\n\n        //ALL CLEAR ???????? mint new card\n        mintZoombieNFT(_cardTypeId);\n    }\n\n    function getFreeCard(uint16 _cardTypeId) external payable {\n        require(allCardTypes[_cardTypeId].cardTypeId != 0, \"Card type ID does not exist\");\n        require(allCardTypes[_cardTypeId].notStoreOrBonus == 0, \"Only cards from store can be minted\");\n        require(block.timestamp >= storeReleaseTime[_cardTypeId], \"Card not released from shop\");\n        require(allCardTypes[_cardTypeId].totalAvailable >= (cardTypeToEdition[_cardTypeId]+1),\n        \"All of these cards have been minted\");\n        require(cardTypesOwned[_msgSender()][_cardTypeId] == false, \"You have already minted this type\");\n        require(allCardTypes[_cardTypeId].weiCost == 0, \"You are attempting to mint a paid type\");\n        uint myZooms = ZoomToken(zoomTokenContract).balanceOf(_msgSender());\n        uint zoomCost = ZOOM_BASE_COST * (10 * allCardTypes[_cardTypeId].unlockZoom);\n        require(myZooms >= allCardTypes[_cardTypeId].unlockZoom || msg.value == zoomCost,\n        \"You do not have the required Zoom balance Or MOVR equivalent\");\n\n        //ALL CLEAR ???????? claim and mint new card\n        mintZoombieNFT(_cardTypeId);\n    }\n\n    function sacrificeNFTs(uint256[] memory _tokenIds) external {\n\n        require(_tokenIds.length <= 256, \"List of tokens to sacrifice must be less than 257 at a time\");\n\n        uint256 sacZoom = 0;\n        for (uint i=0; i < _tokenIds.length; i++) {\n            burn(_tokenIds[i]); //ensure owner before we roll other data\n\n            uint16 _tempCTiD = nfts[_tokenIds[i]].cardTypeId;\n            tokensByRarity[allCardTypes[_tempCTiD].rarity] -= 1;\n            sacZoom += allCardTypes[_tempCTiD].sacrificeZoom;\n            delete (nfts[_tokenIds[i]]);\n            emit LogSacrificeNFT(_msgSender(), _tokenIds[i], _tempCTiD, allCardTypes[_tempCTiD].sacrificeZoom);\n        }\n\n        awardZoom(_msgSender(), sacZoom);\n        rewardAffiliate(sacZoom);\n    }\n\n    //every 8 hours, the address can get 2 free booster cards\n    function getBonusBoosters(address _player) external {\n        require(block.timestamp >= getTimeToDailyBonus(_player), \"Can't claim before time to claim next bonus\");\n\n        //Stop re-entrancy, update the lastpull value\n        timeToCardsPull[_player] = block.timestamp + 8 hours;\n\n        //Let the world award our friend\n        awardZoom(_msgSender(), 10);\n        //reward the sponsor\n        rewardAffiliate(10);\n\n        // add the boosters and emit event\n        boosterCreditsOwned[_player] += 2;\n        emit LogDailyReward(_player, boosterCreditsOwned[_player]);\n    }\n\n    function linkMySponsor(address _mySponsor) external {\n        require(_mySponsor != address(0), \"Send a valid sponsor wallet\");\n        require(sponsors[_msgSender()] == address(0), \"You have already linked a sponsor\");\n        require(_msgSender() != _mySponsor, \"You cannot sponsor yourself\");\n\n        //All clear?  stop re-entrancy, set the association\n        sponsors[_msgSender()] = _mySponsor;\n\n        //Mint the Platinum Sponsor Card\n        bool tryAgain = true;\n        while (tryAgain) {\n            if (pullCard(2)) {\n                tryAgain = false;\n            }\n        }\n    }\n\n    function buyBoosterCredits(uint _amount) external payable returns(bool) {\n        require(msg.value == (weiCostOfBooster * _amount), \"Cost to buy 1 Booster NFT credit is 0.001\");\n\n        //All good increase the number owned\n        boosterCreditsOwned[_msgSender()] += _amount;\n\n        //Award czxp for booster\n        awardZoom(_msgSender(), (zoomGainedPerBoosterCredit * _amount));\n        rewardAffiliate(zoomGainedPerBoosterCredit * _amount);\n\n        return true;\n    }\n\n    function buyBoosterAndMintNFT() external payable returns(bool) {\n        require(msg.value == weiCostOfBooster, \"Cost to buy and mint a Booster NFT is 0.001\");\n\n        //Award zoom per pack\n        awardZoom(_msgSender(), zoomGainedPerBoosterCredit);\n        rewardAffiliate(zoomGainedPerBoosterCredit);\n\n        //Pull the card\n        uint8 rarity = getRarity(0);\n        bool tryAgain = true;\n        while (tryAgain) {\n            if (pullCard(rarity)) {\n                tryAgain = false;\n            }\n        }\n\n        //Send a log event\n        emit LogPackOpened(_msgSender(), rarity);\n        return true;\n    }\n\n    function mintBoosterNFT(uint zoomWager) external returns(bool) {\n        require(boosterCreditsOwned[_msgSender()] > 0, \"No Booster credits owned\");\n        require(zoomWager == 0 || zoomWager >= 1000000 && zoomWager <= 20000000, \"Wager must be 0 or between than 1-20M\");\n\n        //STOP re-entrancy , decrement number of credits\n        boosterCreditsOwned[_msgSender()] -= 1;\n\n        //Pull the card\n        uint8 rarity = getRarity(zoomWager);\n        bool tryAgain = true;\n        while (tryAgain) {\n            if (pullCard(rarity)) {\n                tryAgain = false;\n            }\n        }\n        //Send a log event\n        emit LogPackOpened(_msgSender(), rarity);\n        return true;\n    }\n\n    function awardBoosterCredits(address _winner, uint8 _amount) external onlyOwner returns(bool) {\n\n        //Check max. for Universe\n        require((totalBoostersRewarded + _amount) <= maxBoostersRewards,\n        \"Reached max. number of Booster credit rewards\");\n\n        totalBoostersRewarded += _amount;\n        boosterCreditsOwned[_winner] += _amount;\n        emit LogRewardBoosters(_winner, _amount);\n        return true;\n    }\n\n    function supportsInterface(bytes4 interfaceId)\n        public\n        view\n        override(ERC721, ERC721Enumerable)\n        returns (bool)\n    {\n        return super.supportsInterface(interfaceId);\n    }\n\n    function getTimeToDailyBonus(address _player) public view returns(uint256 timeStamp) {\n\n        //check if address exists\n        if (timeToCardsPull[_player] == 0) {\n            return block.timestamp - 2 seconds;\n        }else {\n            return timeToCardsPull[_player];\n        }\n    }\n\n    /**\n     * Withdraw balance to wallet\n     */\n    function withdraw() public onlyOwner returns(bool) {\n        payable(_msgSender()).transfer(address(this).balance);\n        return true;\n    }\n\n    function _baseURI() internal view virtual override returns (string memory) {\n        return _baseTokenURI;\n    }\n\n    function _beforeTokenTransfer(address from, address to, uint256 tokenId)\n        internal\n        whenNotPaused\n        override(ERC721, ERC721Enumerable)\n    {\n        super._beforeTokenTransfer(from, to, tokenId);\n    }\n\n//Private\n    function pullCard(uint8 _rarity) private returns (bool) {\n\n        //Get a random number for the card to pull\n        uint256 rand = selectRandom(allBoosterCardIds[_rarity].length);\n\n        //hit up the cardTypes\n        uint16 _pulledId = allBoosterCardIds[_rarity][rand];\n        if\n            (allCardTypes[_pulledId].totalAvailable > 0 && //test for limited edition boosters\n            (cardTypeToEdition[_pulledId]+1) > allCardTypes[_pulledId].totalAvailable) {\n                return false;\n            }\n\n        //Give the player this cardType\n        mintZoombieNFT(_pulledId);\n        return true;\n    }\n\n    function mintZoombieNFT(uint16 _cardTypeId) private {\n        //Stop re-entrancy, Track the type of card puchased for this owner, so they cant buy again\n        cardTypesOwned[_msgSender()][_cardTypeId] = true;\n\n        //Let the world award our friend\n        awardZoom(_msgSender(), allCardTypes[_cardTypeId].buyZoom);\n        //reward the sponsor\n        rewardAffiliate(allCardTypes[_cardTypeId].buyZoom);\n\n        cardTypeToEdition[_cardTypeId] += 1;\n\n        _tokenIdCounter.increment();\n        uint256 _newTokenId = _tokenIdCounter.current();\n\n        //now mint the NFT\n        _safeMint(_msgSender(), _newTokenId);\n\n        //Create the NFT data on chain!\n        NFTdata memory _tempCard = NFTdata({\n            cardTypeId:_cardTypeId,\n            editionNumber:cardTypeToEdition[_cardTypeId]\n        });\n        nfts[_newTokenId] = _tempCard;\n\n        tokensByRarity[allCardTypes[_cardTypeId].rarity] += 1;\n\n        emit LogCardMinted(_msgSender(), _newTokenId, _tempCard.cardTypeId, _tempCard.editionNumber);\n    }\n\n    /**\n     * We always pay our affiliates 20% of the zoom commission\n     */\n    function rewardAffiliate(uint _totalZoom) private {\n        //first check if the caller has a sponsor\n        if (sponsors[_msgSender()] != address(0)) {\n            uint reward = _totalZoom / 5;\n            if (reward == 0) {\n                reward = 1;\n            }\n            awardZoom(sponsors[_msgSender()], reward);\n            emit LogSponsorReward(sponsors[_msgSender()], _msgSender(), reward);\n        }\n    }\n}\n",
  "sourcePath": "/home/ryanpricelondon/Zoombies/contracts/Zoombies.sol",
  "compiler": {
    "name": "solc",
    "version": "0.8.4+commit.c7e474f2.Emscripten.clang"
  },
  "schemaVersion": "3.4.0",
  "updatedAt": "2021-09-02T01:52:37.379Z",
  "networkType": "ethereum",
  "devdoc": {
    "kind": "dev",
    "methods": {
      "approve(address,uint256)": {
        "details": "See {IERC721-approve}."
      },
      "balanceOf(address)": {
        "details": "See {IERC721-balanceOf}."
      },
      "burn(uint256)": {
        "details": "Burns `tokenId`. See {ERC721-_burn}. Requirements: - The caller must own `tokenId` or be an approved operator."
      },
      "getApproved(uint256)": {
        "details": "See {IERC721-getApproved}."
      },
      "isApprovedForAll(address,address)": {
        "details": "See {IERC721-isApprovedForAll}."
      },
      "name()": {
        "details": "See {IERC721Metadata-name}."
      },
      "owner()": {
        "details": "Returns the address of the current owner."
      },
      "ownerOf(uint256)": {
        "details": "See {IERC721-ownerOf}."
      },
      "paused()": {
        "details": "Returns true if the contract is paused, and false otherwise."
      },
      "renounceOwnership()": {
        "details": "Leaves the contract without owner. It will not be possible to call `onlyOwner` functions anymore. Can only be called by the current owner. NOTE: Renouncing ownership will leave the contract without an owner, thereby removing any functionality that is only available to the owner."
      },
      "safeTransferFrom(address,address,uint256)": {
        "details": "See {IERC721-safeTransferFrom}."
      },
      "safeTransferFrom(address,address,uint256,bytes)": {
        "details": "See {IERC721-safeTransferFrom}."
      },
      "setApprovalForAll(address,bool)": {
        "details": "See {IERC721-setApprovalForAll}."
      },
      "symbol()": {
        "details": "See {IERC721Metadata-symbol}."
      },
      "tokenByIndex(uint256)": {
        "details": "See {IERC721Enumerable-tokenByIndex}."
      },
      "tokenOfOwnerByIndex(address,uint256)": {
        "details": "See {IERC721Enumerable-tokenOfOwnerByIndex}."
      },
      "tokenURI(uint256)": {
        "details": "See {IERC721Metadata-tokenURI}."
      },
      "totalSupply()": {
        "details": "See {IERC721Enumerable-totalSupply}."
      },
      "transferFrom(address,address,uint256)": {
        "details": "See {IERC721-transferFrom}."
      },
      "transferOwnership(address)": {
        "details": "Transfers ownership of the contract to a new account (`newOwner`). Can only be called by the current owner."
      }
    },
    "version": 1
  },
  "userdoc": {
    "kind": "user",
    "methods": {
      "withdraw()": {
        "notice": "Withdraw balance to wallet"
      }
    },
    "version": 1
  }
}